:100000000C94EF020C940A030C940A030C940A0358
:100010000C940A030C940A030C940A030C940A032C
:100020000C940A030C940A030C940A030C940C031A
:100030000C9450140C940A030C940A030C940A03B5
:100040000C940A030C940A030C940A030C940A03FC
:100050000C940A030C940A030C940A032800042845
:1000600000032800022800012800002B00003400B3
:100070000434000325000725000634000222000690
:100080002200042200022200003400012800063170
:1000900000063100043100023100002E000325006B
:1000A000052B00022800072200072200052200037A
:1000B000220001340000280005310007310005311D
:1000C00000033100012E00022500042B0001303115
:1000D000323334353637383961626364656600001F
:1000E0000000003E5551553E3E6B6F6B3E1C3E7C02
:1000F0003E1C081C3E1C08085E775E080C5E7F5E96
:100100000C000000000000000000000000000000E3
:10011000000000000030484D3307262979292620A9
:10012000503F0300607F05353F2A1C771C2A7F3E25
:100130001C0800081C3E7F0014367F3614005F0048
:100140005F000E117F107F204A552920303030305B
:100150000054767F765404067F060410307F3010FA
:1001600008083E1C08081C3E0808001C1C1010084B
:100170001C081C0810181C1810040C1C0C0400008F
:10018000000000005F0000000003000300143E14A4
:100190003E14242A7F2A122313086462364956200B
:1001A000500002010000001C2241000041221C00FE
:1001B0002A1C7F1C2A08083E08084060200000080E
:1001C00008080800006060000020100804023E518A
:1001D00049453E00427F4000426151494622414923
:1001E00049361814127F1027454545393C4A49497C
:1001F0003003017109073649494936064949291E24
:100200000036360000004076360008142241001403
:1002100014141400412214080002015909063E4139
:100220005D555E7C1211127C7F494949363E414141
:1002300041227F4141413E7F494949417F090909A6
:10024000003E4149493A7F0808087F00417F41004C
:100250002040403F007F081422417F404040407FC3
:10026000020C027F7F0204087F3E4141413E7F092C
:100270000909063E4151215E7F091929462649494F
:10028000493201017F01013F4040403F1F20402093
:100290001F3F4038403F6314081463070870080785
:1002A0006151494543007F410000020408102000CD
:1002B000417F000000040204004040404040000133
:1002C00002000020545454787F4444443838444455
:1002D0004444384444447F3854545458047E0501FF
:1002E00000485454543C7F0804047800007D00000A
:1002F00020403D00007F1028440000007F0000786F
:10030000041804787C0804047838444444387C1485
:100310001408000814147C007C0804040048545499
:10032000542400047F44003C40403C000C304030EA
:100330000C3C4030403C44281028444C50503C0079
:100340004464544C4400083641000000770000002B
:100350004136080004020408047048444870050748
:10036000304848050710781405077820507101714E
:100370004E00415D55413E20555654782057555703
:100380007814147F14140020102000130B041A1981
:10039000485556552400081422003E417F49490023
:1003A0003E223E004465564D44003E223E00303819
:1003B0003C30203D40403D00000B7000000E0D0021
:1003C0000E0D0B70000B701C3E3E3E1C0008080812
:1003D0000008080808082010201000107010707025
:1003E0004855565524002214080038447C545800BF
:1003F0003E223E004465564D440C1170110C000025
:10040000000000007D7D00001C227F22144A6D59EF
:100410004922221C141C222B2C7C2C2B00777700C9
:1004200000204A55292030300030303E5D63553E73
:100430000815151E0008142A1422080808180000C0
:100440000808080055555555552A2A2A2A2A552A9A
:10045000552A557F007F007F102220221010222075
:1004600022112012101220102A282A1010123052A5
:10047000302012201220402210121000121F1000F3
:100480000E11110E0022142A1408170834227917AD
:10049000084C6A51121010120030484D403070293B
:1004A0002628707028262970702A252A707229261D
:1004B0002970702924297070282528707E097F49A9
:1004C000490E5151310A7C555644447C565544449A
:1004D0007C565546007D5455440000457E4400003E
:1004E000447E450000467D460000457C4500497F2E
:1004F00049413E7C0A11227D3845464438384446FD
:10050000453838464546383A4546453838454445E5
:100510003844281028443E5149453E3C4142403C25
:100520003C4042413C3C4241423C3C4140413C0C0D
:100530001072110C7F141408007E29494E3020558A
:10054000565478205456557820565556782255568C
:1005500055782055545578205455547874547C540B
:100560005C005C622214385556544838545655483D
:100570003856555648385554554800107A000000F2
:10058000007A1000002079200000207820005032EE
:100590004D48300103070F7F7E7E7E7E7E7C7C7C13
:1005A0007C7C78787878787070707070606060604B
:1005B0006040404040407F000000007F7F0000001E
:1005C0007F7F7F00007F7F7F7F007F4141417F00F1
:1005D0003E223E0000001C00000000080000112424
:1005E0001FBECFEFD4E0DEBFCDBF11E0A0E0B1E091
:1005F000E2E5FAE202C005900D92A230B107D9F708
:1006000011E0A2E0B1E001C01D92A137B107E1F70E
:100610000C9421030C9400001F920F920FB60F92BE
:1006200011248F93CF93DF93CDB7DEB781E0809312
:100630000901DF91CF918F910F900FBE0F901F9006
:100640001895CAEFD4E0DEBFCDBFE4E5F0E010823C
:1006500088E10FB6F89480936000109260000FBE9E
:100660000E946E110E94A3050E94AB1478941D8213
:100670001C821B821A8280910801813001F5F89456
:1006800020910501822F9927FC01E759FE4F8081B7
:100690008983822F8F5F8093050180910501877088
:1006A000809305019091040180910501981711F440
:1006B00010920801789489810E94CB11DCCF80913F
:1006C00000018823C1F20E946603D5CFCF93DF9348
:1006D000CDB7DEB7AC970FB6F894DEBF0FBECDBF77
:1006E0001CA61CA623C28CA5482F5527CA01880F1B
:1006F000991F880F991F880F991F9C01220F331F84
:10070000220F331F820F931F840F951F865F9E4F0A
:100710009BA78AA7EAA5FBA5828189A7EAA5FBA5D5
:10072000878D88A7EAA5FBA581818FA3EAA5FBA5F4
:1007300080A58F708EA388A5873059F49FA18EA1C4
:10074000981739F48FA18F5F8FA38FA1853009F49B
:100750001FA28CA5282F3327C901880F991F820F4C
:10076000931F9C01220F331F220F331F820F931FF1
:10077000AC018FA1282F3327C901880F991F820F41
:10078000931F9A01280F391F8CE590E0820F931F69
:100790009DA38CA3EAA5FBA581A192A19BA38AA3FB
:1007A000EAA5FBA583A194A199A388A3EAA5FBA52B
:1007B00080A582958F708F8F88A5873009F055C0EE
:1007C0008FA1882309F051C0EAA5FBA580A1882349
:1007D000D1F48CA5282F3327C901880F991F820FC8
:1007E000931F9C01220F331F220F331F220F331F31
:1007F000A901481B590BCA018C559F4FEAA5FBA5BF
:1008000092A381A319C08CA5282F3327C901880F73
:10081000991F820F931F9C01220F331F220F331F3A
:10082000220F331FA901481B590BCA0186589F4F3D
:10083000EAA5FBA592A381A3EAA5FBA521A132A16C
:100840008AA19BA12817390781F08AA19BA199A3AE
:1008500088A3EAA5FBA581A192A19BA38AA3EAA5EF
:10086000FBA588A199A194A383A388A5873028F428
:10087000EAA5FBA5868D8E8F0CC08FA1282F33276C
:100880008AA59BA5820F931FFC01799680818E8F8C
:1008900018A68CA19DA1988F8F8BEF89F88D8491DC
:1008A0008E8B8E8999279D8F8C8F8CA19DA102960E
:1008B0009D8B8C8BEC89FD8984918B8B8B898B8FA5
:1008C00088A5882321F5EAA5FBA5A5A1B6A1EAA5DF
:1008D000FBA505A0F6A1E02D8081482FEAA5FBA588
:1008E00087A1282F332781E090E0022E02C0880FD5
:1008F000991F0A94E2F7842B8C93EAA5FBA58C8DB3
:100900009D8D96A385A3EAA5FBA58B8D87A31A8E43
:10091000198EB7C08AA19BA19C878B87EB85FC852C
:1009200084918A878A8599279A8B898B8AA19BA132
:10093000029699878887E885F98584918F838F81CE
:10094000888B88A199A19E838D83ED81FE818491FE
:100950008C838C8199279F878E8788A199A1029685
:100960009B838A83EA81FB818491898389818D8736
:10097000EE85FF858081482F8D85282F332781E0E4
:1009800090E0022E02C0880F991F0A94E2F780952A
:100990008423EE85FF8580838A8D823020F4998DB3
:1009A00088A59817A8F4E989FA898081482F888951
:1009B000282F332781E090E0022E02C0880F991F74
:1009C0000A94E2F780958423E989FA8980834CC0F0
:1009D0008E8D282F3327898D9927A90102C055951F
:1009E00047958A95E2F7CA0181709070882341F19A
:1009F000E989FA898081482F8889282F332781E067
:100A000090E002C0880F991F2A95E2F7842BE989AC
:100A1000FA898083898D88A78A8D8F5F8A8F898DD7
:100A2000282F332781E090E0022E02C0880F991F03
:100A30000A94E2F7982F90958E8D89238E8F14C09B
:100A4000E989FA898081482F8889282F332781E016
:100A500090E0022E02C0880F991F0A94E2F7809559
:100A60008423E989FA8980838AA19BA103969BA3A9
:100A70008AA388A199A1039699A388A3898D8F5FE2
:100A8000898F898D873008F445CF89A59927807291
:100A900090700097A1F4EC8DFD8D8081482F8B8D97
:100AA000282F332781E090E0022E02C0880F991F83
:100AB0000A94E2F780958423EC8DFD8D8083EAA56E
:100AC000FBA58E8D868F8E8D882349F487E088A7BD
:100AD0008FA18F5F8FA38FA1853009F41FA2EAA594
:100AE000FBA588A5878FEAA5FBA58FA1818388A593
:100AF0008730C9F489A5992788709070009799F07C
:100B0000EC8DFD8D8081482F8B8D282F332781E040
:100B100090E0022E02C0880F991F0A94E2F7842BFE
:100B2000EC8DFD8D80838CA58F5F8CA78CA582308A
:100B300008F4D9CDAC960FB6F894DEBF0FBECDBF8A
:100B4000DF91CF910895CF93DF93CDB7DEB78AE0E1
:100B500091E042E550E060E070E00E9416158FE001
:100B600080930D018FE080933601A5E5B0E0E5E5C7
:100B7000F0E0808184608C93E1E2F0E08FEF80838D
:100B8000A4E2B0E0E4E2F0E08081806F8C93E7E2E1
:100B9000F0E08FEF8083EAE2F0E087E08083EDE22F
:100BA000F0E08CE08083E0E3F0E08FEF8083E3E32C
:100BB000F0E08FE18083A5E2B0E0E5E2F0E0808143
:100BC000806C8C93E8E2F0E08FE18083EBE2F0E070
:100BD00089EF8083AEE2B0E0EEE2F0E0908183EF57
:100BE00089238C93E4E3F0E088E18083E1E3F0E0A3
:100BF000108284E080930B0184E0809334018AE7C3
:100C000090E090932C0180932B018FE890E09093DB
:100C10005501809354018AE790E090932E018093D0
:100C20002D018FE890E0909357018093560187E063
:100C30008093290187E08093520140E060E080E0EA
:100C40000E94101140E065E080E00E941011DF91E9
:100C5000CF910895CF93DF93CDB7DEB722970FB62C
:100C6000F894DEBF0FBECDBF89836A838981482F88
:100C70005527CA01880F991F880F991F880F991F40
:100C80009C01220F331F220F331F820F931F840FEB
:100C9000951FFC01E65FFE4F8A81808389810E9457
:100CA0005A0622960FB6F894DEBF0FBECDBFDF9175
:100CB000CF910895CF93DF93CDB7DEB769970FB685
:100CC000F894DEBF0FBECDBF898B8989482F552789
:100CD000CA01880F991F880F991F880F991F9C01BF
:100CE000220F331F220F331F820F931F840F951F74
:100CF000865F9E4F9E878D87ED85FE858081282F9C
:100D00003327C901880F991F880F991F820F931FDE
:100D100082529F4F9C878B87ED85FE858281992724
:100D2000807190700097E9F0188A17C08889482F61
:100D300055278889282F33278D859E85820F931FFD
:100D4000FC01749620818D859E85840F951FFC0182
:100D50007996208388898F5F888B8889853030F3E6
:100D600020C0188A1BC08889482F55278B859C85F1
:100D70009A8789878B859C8501969C878B87E985D7
:100D8000FA858491888728858D859E85840F951F97
:100D9000FC017996208388898F5F888B88898530CC
:100DA00010F3ED85FE851182ED85FE8588E0878F45
:100DB0008AE091E00E94C40E8D859E850E94230DDD
:100DC0008F879AC18D859E859F838E838F85992776
:100DD0009C012F703070398F288F888D998D8530C8
:100DE0009105BCF4288D398D233031050CF0B2C04B
:100DF000888D998D8130910509F46BC0288D398DCE
:100E0000223031050CF086C0888D998D009771F0E5
:100E10006EC1288D398D2530310509F4EDC0888DDE
:100E2000998D8630910509F425C161C11C824CC0A1
:100E30008C81282F33278D859E85820F931FFC017F
:100E4000799680818D838D8199278A7A9070959586
:100E50008795282F8D81992785759070880F991F08
:100E6000822B8D838D8199278C7C907095958795A9
:100E700095958795282F8D81992783739070880F7A
:100E8000991F880F991F822B8D838D8182958F707A
:100E9000282F8D81992782959295907F9827807F22
:100EA0009827822B8D838D8186958D838C81282F29
:100EB00033278D859E85820F931FFC0179968D8146
:100EC00080838C818F5F8C838C81853008F4B0CFD8
:100ED0000EC1ED85FE85818D8B83ED85FE85858D2B
:100EE000ED85FE85818FED85FE85828DED85FE8504
:100EF000858FED85FE85848DED85FE85828FED8560
:100F0000FE85858DED85FE85848FED85FE858B8143
:100F1000858FEDC01C821AC08C81482F55278C818B
:100F2000282F33278D859E85820F931FFC0179968C
:100F300080818095282F2F778D859E85840F951F22
:100F4000FC01799620838C818F5F8C838C81853026
:100F500018F3CDC08D859E8560E00E94B10D8A8317
:100F60008A8199279C01207F30703F8B2E8B8E8940
:100F70009F8980329105F9F02E893F892132310510
:100F800034F48E899F898031910561F0B0C02E893B
:100F90003F8920333105D9F08E899F8980349105AE
:100FA000F9F0A5C08A81282F2F708D859E85622F2C
:100FB0000E941B0E9CC08A81982F9F7087E0282F6B
:100FC000291B8D859E85622F0E941B0E90C08A81F1
:100FD000282F2F708D859E85622F0E94810E87C0DD
:100FE0008A81982F9F7085E0282F291B8D859E85EB
:100FF000622F0E94810E7BC08D859E8560E00E94DD
:10100000B10D8983898199279C01207F30703D8BA8
:101010002C8B8C899D898031910531F02C893D89FB
:1010200020323105A1F063C089818F7089838D855D
:101030009E8569810E941B0E97E08981292F281BBC
:101040008D859E854981622F0E94D90E50C089816D
:101050008F70898397E08981292F281B8D859E8534
:10106000622F0E941B0E8D859E85498160E00E9443
:10107000D90E3DC08D859E8560E00E94B10D8D83A7
:101080008D8199279C01207F30703B8B2A8B8A8928
:101090009B898033910531F02A893B8920343105C1
:1010A000A1F025C08D818F708D838D859E856D818A
:1010B0000E94810E95E08D81292F281B8D859E85AC
:1010C0004D81622F0E94260F12C08D818F708D83FB
:1010D00095E08D81292F281B8D859E85622F0E948A
:1010E000810E8D859E854D8160E00E94260F8D8545
:1010F0009E850E94770D8F878F8599278F709070BE
:101100008F30910509F05ECE69960FB6F894DEBF78
:101110000FBECDBFDF91CF910895CF93DF93CDB7B1
:10112000DEB724970FB6F894DEBF0FBECDBF89831C
:101130006A838A81282F33273C832B838B819C8170
:10114000009731F02B813C812130310531F009C00D
:1011500062E089810E943C0C04C062E089810E94A7
:10116000BB0C89810E945A0624960FB6F894DEBF04
:101170000FBECDBFDF91CF910895CF93DF93CDB751
:10118000DEB724970FB6F894DEBF0FBECDBF8983BC
:101190006A838A81282F33273C832B838B819C8110
:1011A000009731F02B813C812130310531F009C0AD
:1011B00060E089810E943C0C04C060E089810E944B
:1011C000BB0C89810E945A0624960FB6F894DEBFA4
:1011D0000FBECDBFDF91CF910895CF93DF93CDB7F1
:1011E000DEB724970FB6F894DEBF0FBECDBF89835C
:1011F0006A838A81282F33273C832B838B819C81B0
:10120000009731F02B813C812130310531F009C04C
:1012100061E089810E943C0C04C061E089810E94E8
:10122000BB0C89810E945A0624960FB6F894DEBF43
:101230000FBECDBFDF91CF910895CF93DF93CDB790
:10124000DEB724970FB6F894DEBF0FBECDBF8983FB
:101250006A838A81282F33273C832B838B819C814F
:10126000009731F02B813C812130310591F161C033
:101270008981682F77278981482F5527CA01880FD0
:10128000991F880F991F880F991F9C01220F331FE8
:10129000220F331F820F931F840F951FFC01E45F01
:1012A000FE4F8081482F477FCB01880F991F880F01
:1012B000991F880F991F9C01220F331F220F331F84
:1012C000820F931F860F971FFC01E45FFE4F408340
:1012D00030C08981682F77278981482F5527CA0117
:1012E000880F991F880F991F880F991F9C01220F43
:1012F000331F220F331F820F931F840F951FFC0192
:10130000E45FFE4F8081482F4860CB01880F991F12
:10131000880F991F880F991F9C01220F331F220FDE
:10132000331F820F931F860F971FFC01E45FFE4F50
:10133000408324960FB6F894DEBF0FBECDBFDF9179
:10134000CF910895CF93DF93CDB7DEB724970FB633
:10135000F894DEBF0FBECDBF89836A838A81282FB0
:1013600033273C832B838B819C81009731F02B8129
:101370003C812130310591F161C08981682F772747
:101380008981482F5527CA01880F991F880F991FF7
:10139000880F991F9C01220F331F220F331F820FCA
:1013A000931F840F951FFC01E45FFE4F8081482F3F
:1013B0004F7ECB01880F991F880F991F880F991FA7
:1013C0009C01220F331F220F331F820F931F860FA2
:1013D000971FFC01E45FFE4F408330C08981682F76
:1013E00077278981482F5527CA01880F991F880FB1
:1013F000991F880F991F9C01220F331F220F331F43
:10140000820F931F840F951FFC01E45FFE4F8081C4
:10141000482F4061CB01880F991F880F991F880FB3
:10142000991F9C01220F331F220F331F820F931F1E
:10143000860F971FFC01E45FFE4F408389810E9465
:101440005A0624960FB6F894DEBF0FBECDBFDF91CB
:10145000CF910895CF93DF93CDB7DEB722970FB624
:10146000F894DEBF0FBECDBF89836A838A8188234B
:1014700089F18981682F77278981482F5527CA01EB
:10148000880F991F880F991F880F991F9C01220FA1
:10149000331F220F331F820F931F840F951FFC01F0
:1014A000E45FFE4F8081482F4062CB01880F991F77
:1014B000880F991F880F991F9C01220F331F220F3D
:1014C000331F820F931F860F971FFC01E45FFE4FAF
:1014D000408330C08981682F77278981482F55271D
:1014E000CA01880F991F880F991F880F991F9C01A7
:1014F000220F331F220F331F820F931F840F951F5C
:10150000FC01E45FFE4F8081482F4F7DCB01880FA7
:10151000991F880F991F880F991F9C01220F331F55
:10152000220F331F820F931F860F971FFC01E45F6A
:10153000FE4F408322960FB6F894DEBF0FBECDBF9C
:10154000DF91CF910895CF93DF93CDB7DEB7299781
:101550000FB6F894DEBF0FBECDBF8B836C834D8377
:101560008B81482F5527CA01880F991F880F991F13
:10157000880F991F9C01220F331F220F331F820FE8
:10158000931F840F951F865F9E4F9A8389838D8159
:101590009927009709F02AC08C81282F3327398793
:1015A0002887888599858C369105D9F028853985D5
:1015B0002D36310534F4888599858436910561F09E
:1015C0006CC0288539852237310559F08885998581
:1015D0008537910509F061C065E08B810E943C0C64
:1015E0005CC066E08B810E943C0C57C08C81282F28
:1015F00033273F832E838E819F818C36910591F115
:101600002E813F812D36310534F48E819F818436C1
:101610009105D1F042C02E813F812237310581F101
:101620008E819F818537910509F037C065E08B81F8
:101630000E94BB0C8D81282F206189819A81422FC5
:1016400060E00E94DB0D29C065E08B810E94BB0C2D
:101650008D81282F206289819A81422F60E00E942B
:10166000DB0D1BC066E08B810E94BB0C8D81282F97
:10167000206389819A81422F60E00E94DB0D0DC0BA
:1016800066E08B810E94BB0C8D81282F20648981AC
:101690009A81422F60E00E94DB0D8B810E945A06E6
:1016A00029960FB6F894DEBF0FBECDBFDF91CF9164
:1016B0000895CF93DF93CDB7DEB729970FB6F8948F
:1016C000DEBF0FBECDBF8B836C834D838B81482FD4
:1016D0005527CA01880F991F880F991F880F991FD6
:1016E0009C01220F331F220F331F820F931F840F81
:1016F000951F865F9E4F9A8389838D8199270097D6
:1017000009F02AC08C81282F3327398728878885BC
:1017100099858C369105D9F0288539852D36310586
:1017200034F4888599858436910561F06CC02885EC
:1017300039852237310559F0888599858537910596
:1017400009F061C063E08B810E943C0C5CC064E0E6
:101750008B810E943C0C57C08C81282F33273F83FC
:101760002E838E819F818C36910591F12E813F8150
:101770002D36310534F48E819F8184369105D1F068
:1017800042C02E813F812237310581F18E819F81B8
:101790008537910509F037C063E08B810E94BB0C4F
:1017A0008D81282F206189819A81422F60E00E94DB
:1017B000DB0D29C063E08B810E94BB0C8D81282F3B
:1017C000206289819A81422F60E00E94DB0D1BC05C
:1017D00064E08B810E94BB0C8D81282F206389815E
:1017E0009A81422F60E00E94DB0D0DC064E08B8186
:1017F0000E94BB0C8D81282F206489819A81422F01
:1018000060E00E94DB0D8B810E945A0629960FB67C
:10181000F894DEBF0FBECDBFDF91CF910895CF9377
:10182000DF93CDB7DEB722970FB6F894DEBF0FBEB9
:10183000CDBF89836A838981482F5527CA01880FC4
:10184000991F880F991F880F991F9C01220F331F22
:10185000220F331F820F931F840F951FFC01E65D3B
:10186000FE4F8A81808322960FB6F894DEBF0FBEAA
:10187000CDBFDF91CF910895CF93DF93CDB7DEB782
:1018800026970FB6F894DEBF0FBECDBF8D836E8353
:101890008D81482F5527CA01880F991F880F991FDE
:1018A000880F991F9C01220F331F220F331F820FB5
:1018B000931F840F951F865F9E4F9C838B838B8124
:1018C0009C810E94230D8F708A8348C09A818E81EB
:1018D0009817F1F58E810E943F0D89838B819C8141
:1018E0000E94C40EEB81FC818389282F332780E17D
:1018F00090E0AC01421B530B9A0189819927A90101
:10190000481B590BCA01DC018B819C81AC014D5FE6
:101910005F4FEB81FC818389282F332789819927A9
:10192000820F931FBA01680F791F8B819C819C01E4
:101930002D5F3F4FEB81FC8183899927820F931F95
:10194000AD010E9403158B819C810E94C40E0AC0C8
:101950008B819C810E94770D8F708A838A818F3062
:1019600009F0B4CF26960FB6F894DEBF0FBECDBFF8
:10197000DF91CF910895CF93DF93CDB7DEB7259751
:101980000FB6F894DEBF0FBECDBF8C836D838C8104
:10199000482F5527CA01880F991F880F991F880F54
:1019A000991F9C01220F331F220F331F820F931F99
:1019B000840F951F865F9E4F9B838A838A819B81BC
:1019C0000E94230D898309C099818D81981761F048
:1019D0008A819B810E94770D8983898199278F70E5
:1019E00090708F30910581F7EA81FB814389242F24
:1019F00033278A819B81820F931FFC0133968D814F
:101A00008083842F8F5FEA81FB81838B8981992773
:101A10008F7090708F30910569F4EA81FB81838922
:101A2000282F33278A819B81820F931FFC013396D5
:101A30008FE0808325960FB6F894DEBF0FBECDBF32
:101A4000DF91CF910895CF93DF93CDB7DEB7229783
:101A50000FB6F894DEBF0FBECDBF9A838983E981AC
:101A6000FA81138AE981FA818381992722960FB638
:101A7000F894DEBF0FBECDBFDF91CF910895CF9315
:101A8000DF93CDB7DEB725970FB6F894DEBF0FBE54
:101A9000CDBF8983898199279C012F7030703D8348
:101AA0002C838C819D819923ACF02C813D81233046
:101AB000310534F08C819D81873091055CF405C03F
:101AC00021E030E03B832A8307C082E090E09B83E3
:101AD0008A8302C01B821A828A819B8125960FB657
:101AE000F894DEBF0FBECDBFDF91CF9108951F9355
:101AF000CF93DF93CDB7DEB722970FB6F894DEBF52
:101B00000FBECDBF9A838983E981FA811389E98168
:101B1000FA818389282F332789819A81820F931F25
:101B2000FC01339680818F700E943F0D810FE98107
:101B3000FA81838BE981FA818389282F3327898170
:101B40009A81820F931FFC013396808199272296F8
:101B50000FB6F894DEBF0FBECDBFDF91CF911F91BE
:101B60000895CF93DF93CDB7DEB723970FB6F894E0
:101B7000DEBF0FBECDBF9A8389836B83E981FA8173
:101B80008389282F33278B819927820F931F9C01EC
:101B90002F5F3F4F89819A81820F931FFC013396FB
:101BA0008081992723960FB6F894DEBF0FBECDBF74
:101BB000DF91CF910895CF93DF93CDB7DEB726970E
:101BC0000FB6F894DEBF0FBECDBF9C838B836D83B1
:101BD0004E838B819C81AC014D5F5F4FEB81FC811B
:101BE0008389282F33278D819927820F931F840F94
:101BF000951F9A838983E981FA8180818F3071F4FE
:101C0000E981FA818E81808389819A8101969A8304
:101C10008983E981FA818FE0808304C0E981FA81B8
:101C20008E81808326960FB6F894DEBF0FBECDBF9F
:101C3000DF91CF910895CF93DF93CDB7DEB726978D
:101C40000FB6F894DEBF0FBECDBF9D838C836E832D
:101C50001A824AC08A81282F33278C819D81820F66
:101C6000931FFC017996808189838E81282F3327E9
:101C700081E090E002C0880F991F2A95E2F7815019
:101C8000982F898189238B838981282F33278E81FF
:101C90009927A90102C0559547958A95E2F7CA018F
:101CA00089838B81482F55278E81282F332787E002
:101CB00090E0821B930B9A0102C0220F331F8A957A
:101CC000E2F7C901982F8981892B89838A81282F7E
:101CD00033278C819D81820F931FFC017996898126
:101CE00080838A818F5F8A838A81853008F4B2CFAE
:101CF00026960FB6F894DEBF0FBECDBFDF91CF9111
:101D00000895CF93DF93CDB7DEB725970FB6F8943C
:101D1000DEBF0FBECDBF9C838B836D8329C0EB815B
:101D2000FC81818D8A83198219C08981482F5527AA
:101D3000898199279C012F5F3F4F8B819C81820F66
:101D4000931FFC01799620818B819C81840F951FC4
:101D5000FC017996208389818F5F89838981843012
:101D600020F3EB81FC818A81858F8D8181508D8369
:101D70008D818823A1F625960FB6F894DEBF0FBE9D
:101D8000CDBFDF91CF910895CF93DF93CDB7DEB76D
:101D900022970FB6F894DEBF0FBECDBF9A8389831A
:101DA00022960FB6F894DEBF0FBECDBFDF91CF9164
:101DB0000895CF93DF93CDB7DEB725970FB6F8948C
:101DC000DEBF0FBECDBF9B838A836C834D83198298
:101DD00031C08981482F55278981282F33278A814F
:101DE0009B81820F931FFC0179968081682F8D81E2
:101DF000282F332781E090E002C0880F991F2A9591
:101E0000E2F79C01215030408C819927F90102C0F2
:101E1000EE0FFF1F8A95E2F7CF0180958623282FCA
:101E20008A819B81840F951FFC017996208389818B
:101E30008F5F89838981853060F225960FB6F8948B
:101E4000DEBF0FBECDBFDF91CF910895CF93DF935B
:101E5000CDB7DEB724970FB6F894DEBF0FBECDBF67
:101E60009A8389836B834C838C8181508C838B8193
:101E7000282F33278C819927280F391F89819A8130
:101E8000820F931FFC01799610828C81882361F761
:101E900024960FB6F894DEBF0FBECDBFDF91CF9171
:101EA0000895CF93DF93CDB7DEB721970FB6F8949F
:101EB000DEBF0FBECDBF89838981482F5527CA0158
:101EC000880F991F880F991F880F991F9C01220F57
:101ED000331F220F331F820F931F840F951FFC01A6
:101EE000E35EFE4F10828981482F5527CA01880F73
:101EF000991F880F991F880F991F9C01220F331F6C
:101F0000220F331F820F931F840F951FFC01E35F85
:101F1000FE4F8FE0808389810E945A0621960FB67A
:101F2000F894DEBF0FBECDBFDF91CF910895CF9360
:101F3000DF93CDB7DEB723970FB6F894DEBF0FBEA1
:101F4000CDBF89836A834B838981482F55278A8136
:101F5000682F7727CA01880F991F880F991F880F4C
:101F6000991F9C01220F331F220F331F820F931FD3
:101F7000840F951F860F971FFC01E25EFE4F8B8139
:101F800080838981482F5527CA01880F991F880FA0
:101F9000991F880F991F9C01220F331F220F331F97
:101FA000820F931F840F951FFC01E45FFE4F808119
:101FB000992780719070009719F089810E945A06C4
:101FC00023960FB6F894DEBF0FBECDBFDF91CF9141
:101FD00008950F931F93CF93DF93CDB7DEB7249768
:101FE0000FB6F894DEBF0FBECDBF89836A834B83E3
:101FF0002C838A81813009F046C08981A82FBB27B4
:102000008C81082F11278981482F55278C81682FB3
:102010007727CA01880F991F880F991F880F991F6A
:102020009C01220F331F220F331F820F931F840F37
:10203000951F860F971FFC01E25EFE4F8081482F9F
:102040008B81282F332781E090E002C0880F991FF1
:102050002A95E2F7842B482FCD01880F991F880F0E
:10206000991F880F991F9C01220F331F220F331FC6
:10207000820F931F8A0F9B1F800F911FFC01E25E4E
:10208000FE4F408346C08981A82FBB278C81082F33
:1020900011278981482F55278C81682F7727CA01FE
:1020A000880F991F880F991F880F991F9C01220F75
:1020B000331F220F331F820F931F840F951F860F2C
:1020C000971FFC01E25EFE4F8081482F8B81282FF5
:1020D000332781E090E002C0880F991F2A95E2F72C
:1020E00080958423482FCD01880F991F880F991F51
:1020F000880F991F9C01220F331F220F331F820F5D
:10210000931F8A0F9B1F800F911FFC01E25EFE4F01
:1021100040838981482F5527CA01880F991F880F4E
:10212000991F880F991F9C01220F331F220F331F05
:10213000820F931F840F951FFC01E45FFE4F808187
:10214000992780719070009719F089810E945A0632
:1021500024960FB6F894DEBF0FBECDBFDF91CF91AE
:102160001F910F910895CF93DF93CDB7DEB72A97D4
:102170000FB6F894DEBF0FBECDBF89876A87898509
:10218000482F5527CA01880F991F880F991F880F5C
:10219000991F9C01220F331F220F331F820F931FA1
:1021A000840F951F865F9E4F9F838E838A85282F7D
:1021B0003327C901880F991F880F991F820F931F1A
:1021C00082529F4F9D838C8318861BC08885482F21
:1021D00055278C819D819B838A838C819D8101966B
:1021E0009D838C83EA81FB818491898329818E81FF
:1021F0009F81840F951FFC017496208388858F5FD3
:1022000088878885853010F389850E945A062A962A
:102210000FB6F894DEBF0FBECDBFDF91CF9108950A
:10222000CF93DF93CDB7DEB725970FB6F894DEBF17
:102230000FBECDBF89836A834B838A818530B0F41A
:102240008981882369F08A81992782959295907F68
:102250009827807F9827982F8B8189238D8302C0B0
:102260008FEF8D838D81809332011BC08A818530F1
:10227000C0F08A818A30A8F48981882369F08A8134
:10228000992782959295907F9827807F9827982FFD
:102290008B8189238C8302C08FEF8C838C81809308
:1022A0005B0125960FB6F894DEBF0FBECDBFDF9160
:1022B000CF910895CF93DF93CDB7DEB721970FB6B7
:1022C000F894DEBF0FBECDBF898321960FB6F89478
:1022D000DEBF0FBECDBFDF91CF910895CF93DF93C7
:1022E000CDB7DEB710920201109260011092030187
:1022F000DF91CF910895CF93DF93CDB7DEB72A97C3
:102300000FB6F894DEBF0FBECDBF89876A871886E7
:102310001F8214C08F81992782539F4F9E838D8384
:10232000ED81FE8184918C839C818985981719F4B5
:102330008F81888706C08F818F5F8F838F818031E7
:1023400048F388858295807F88871F8216C08F8199
:10235000992782539F4F9B838A83EA81FB818491D3
:10236000898399818A85981729F488859F81892B8B
:10237000888706C08F818F5F8F838F81803138F38C
:10238000888599272A960FB6F894DEBF0FBECDBF79
:10239000DF91CF910895CF93DF93CDB7DEB76A97E2
:1023A0000FB6F894DEBF0FBECDBF8A8380910201C5
:1023B000882309F492C120910301822F9927FC01FF
:1023C000E45AFE4F8A818083822F8F5F80930301BE
:1023D0008091600181508093600180916001882329
:1023E00009F076C180915C011982803311F081E09F
:1023F00089838091020199279C012F7D30703A8F4B
:10240000298F898D9A8D8C34910509F4ABC0298D63
:102410003A8D2D3431055CF5898D9A8D8334910583
:1024200009F46BC0298D3A8D243431056CF4898D03
:102430009A8D8134910509F445C0298D3A8D223455
:10244000310509F44EC009C1898D9A8D86349105F4
:1024500009F470C0298D3A8D2934310509F476C00C
:10246000898D9A8D8434910509F453C0F6C0298D65
:102470003A8D2235310509F4ABC0898D9A8D8335AB
:1024800091056CF4298D3A8D2D34310509F47FC006
:10249000898D9A8D8035910509F485C0DEC0298D1E
:1024A0003A8D2435310509F4A9C0898D9A8D84357A
:1024B00091050CF498C0298D3A8D2A35310509F41F
:1024C000B5C0CBC030915C01388F809102011F8A6A
:1024D000813611F081E08F8B688D8F890E942A06EA
:1024E000F7C0809102011E8A823611F491E09E8B22
:1024F0006E8989810E942A0AEBC0809102011D8A9F
:10250000833611F421E02D8B6D8989810E94A20907
:10251000DFC0809102011C8A1B8A843621F481E08D
:1025200090E09C8B8B8B898199276B897C890E9499
:102530001D09CEC0809102011A8A863611F091E001
:102540009A8B6A8989810E94BD08C2C0809102016C
:10255000198A893611F421E0298B698989810E94C1
:102560008D08B6C080915D0190915C01682F892F24
:102570000E947B11888B809102011F868C3611F09E
:1025800031E03F8768898F850E940F0CA1C0809140
:1025900002011E868D3611F481E08E876E85898159
:1025A0000E94ED0895C080915D0190915C01682FBB
:1025B000892F0E947B118D87809102011C868037B4
:1025C00011F091E09C876D858C850E94B31080C0CE
:1025D00080915E01805390915D01482F692F898120
:1025E0000E94590B75C080915E01805390915D01EE
:1025F000482F692F89810E94A30A6AC080915E01D9
:10260000282F20532B8780915D01382F30533A8734
:10261000809102011986843711F481E089872B8526
:102620004A85698589810E94E90F52C080915E01C7
:10263000982F9053988780915D01282F20532F83E6
:10264000809102011E828A3711F431E03E83488571
:102650006F818E810E9410113BC0809102018132F6
:1026600021F489810E94510F33C08091020180338F
:10267000B0F080910201853390F480915D019091DA
:102680005C01682F892F0E947B11982F8091020195
:102690008053492F682F80E00E94970F19C08091C6
:1026A00002018533A8F0809102018A3388F4809179
:1026B0005D0190915C01682F892F0E947B11982FFA
:1026C000809102018553492F682F81E00E94970F66
:1026D0001092020110920301DAC010926001109270
:1026E00003018A81282F33273D832C838C819D8190
:1026F0008235910509F496C02C813D812335310541
:102700000CF04FC08C819D81853491052CF52C8176
:102710003D81213431050CF085C08C819D818A3347
:1027200091050CF0B2C02C813D81203331050CF0B5
:102730008EC08C819D818A32910509F48FC02C81D5
:102740003D812B32310509F495C08C819D81813208
:10275000910509F467C099C02C813D812C34310565
:1027600009F467C08C819D818D3491056CF42C81B6
:102770003D812634310509F455C08C819D81893411
:10278000910509F44FC081C02C813D812D34310564
:1027900009F448C08C819D818035910509F449C0B8
:1027A00074C02C813D812C36310509F442C08C81E6
:1027B0009D818D369105DCF42C813D8125363105D6
:1027C0005CF48C819D818136910564F52C813D817D
:1027D00024353105A9F159C08C819D81863691053A
:1027E00009F12C813D8129363105E1F04EC08C8103
:1027F0009D818537910584F42C813D8122373105F7
:10280000FCF48C819D818D36910561F02C813D8198
:102810002037310571F039C08C819D818A3791054F
:1028200079F033C08A818093020181E08093600156
:102830002EC08A818093020182E08093600127C0CC
:102840008A818093020183E08093600120C08A81A5
:102850008093020182E08093600119C088E190E0DA
:1028600029E00FB6F894A895809360000FBE2093DE
:1028700060000DC0809100011B82882311F491E05B
:102880009B832B812093000102C0109202016A9663
:102890000FB6F894DEBF0FBECDBFDF91CF91089584
:1028A0001F920F920FB60F9211242F933F938F9385
:1028B0009F93AF93BF93EF93FF93CF93DF93CDB7E6
:1028C000DEB730910401832F9927EEE4F0E02081F8
:1028D000FC01E759FE4F2083832F8F5F8093040113
:1028E0008091040187708093040181E08093080146
:1028F000EDE4F0E0808188232CF4EEE4F0E08AEA55
:1029000080831AC090910601809107019817A1F069
:10291000AEE4B0E020910701822F9927FC01EF5926
:10292000FE4F80818C93822F8F5F8093070180916F
:102930000701877080930701DF91CF91FF91EF919D
:10294000BF91AF919F918F913F912F910F900FBEAB
:102950000F901F901895CF93DF93CDB7DEB72197D7
:102960000FB6F894DEBF0FBECDBFA4E2B0E0E4E244
:10297000F0E0808188608C93A4E6B0E0E4E6F0E0CB
:1029800080818B7F8C93EEE4F0E01082EDE4F0E048
:1029900080818983EEE4F0E080818983ECE4F0E0DB
:1029A00080EC808321960FB6F894DEBF0FBECDBFBA
:1029B000DF91CF910895CF93DF93CDB7DEB7219705
:1029C0000FB6F894DEBF0FBECDBF8983F894209177
:1029D0000601822F9927FC01EF59FE4F89818083E0
:1029E000822F8F5F8093060180910601877080930C
:1029F0000601789421960FB6F894DEBF0FBECDBFC6
:102A0000DF91CF9108956817790778F4E62FF72FB3
:102A1000A82FB92FE40FF51FA40FB51F02C0029015
:102A20000E9241505040D8F7089508C0A82FB92FF2
:102A300001C06D9341505040E0F70895E62FF72F05
:102A4000A82FB92F02C001900D9241505040D8F7E5
:022A50000895E7
:00000001FF
