:100000000C948E000C94AB000C94AB000C94AB00E1
:100010000C94AB000C94AB000C94AB000C94AB00B4
:100020000C94AB000C94AB000C94AB000C94AB00A4
:100030000C94AB000C9451020C9426020C94AB006F
:100040000C94AB000C94AB000C94AB000C94AB0084
:100050000C94AB000C94AB000C94AB00496E69742B
:100060000D0A0061413A20616476616E636520315A
:1000700020636F756E740D0A66463A206672656578
:100080002072756E20666F72776172640D0A72520B
:100090003A20667265652072756E207265766572AB
:1000A00073650D0A6E4E3A206E6578742066726133
:1000B0006D650D0A70503A2070726576696F7573C0
:1000C000206672616D650D0A63433A2063616D6558
:1000D0007261207368757474657220283130306DD8
:1000E000732070756C7365290D0A6C203A206C6161
:1000F0006D70206F6E0D0A4C203A206C616D70207F
:100100006F66660D0A003031323334353637383990
:1001100061626364656600100408020011241FBE5A
:10012000CFEFD4E0DEBFCDBF11E0A0E0B1E0EAE563
:10013000FBE002C005900D92A030B107D9F711E0A5
:10014000A0E0B1E001C01D92AF30B107E1F70E941D
:10015000AD000C94F7030C9400002F923F924F9245
:100160005F927F928F929F92AF92BF92CF92DF92D7
:10017000EF92FF920F931F93DF93CF9300D00F92D4
:10018000CDB7DEB70E94B0038CE590E00E94DC039F
:100190000E94CA028CE590E067E00E94B40283E608
:1001A00090E063EA0E94B4020E94FE0278948CE61A
:1001B00087B9439A20ED37E03B832A83198277245D
:1001C000882499246CE2262E61E0362E58EC452EC8
:1001D000512C0E94740290FF9EC08C011070802FE1
:1001E0000E9493020235110509F44BC00335110535
:1001F000F0F40634110509F441C00734110560F428
:100200000134110579F10334110509F446C00F33A7
:10021000110509F04FC02CC00E341105A9F10035AD
:100220001105A9F10C34110509F044C042C00C3687
:10023000110509F43CC00D36110550F403361105C3
:1002400061F106361105D1F00136110599F50AC0A4
:1002500000371105E1F00237110599F00E3611054E
:1002600049F512C033E0398341E0842E912C22C03D
:1002700083E690E063EA0E94B4021CC082E08983B6
:1002800019C091E0998316C0E3E0E98302C0F4E06D
:10029000F98333E0832E912C0DC0439888EE93E0D0
:1002A000F2013197F1F70197D9F7439A03C0429AC7
:1002B00001C04298C801C497069758F4029D900166
:1002C000039D300D129D300D1124265338433B837E
:1002D0002A8301331105B9F00233110520F40033EC
:1002E0001105C9F415C00233110541F0033311059E
:1002F00091F486EB93E09B838A830DC0ECE4F4E0F9
:10030000FB83EA8308C028EE33E03B832A8303C0E3
:100310000E94FE02198289818250823018F40E9464
:100320000A0307C03981313011F0343011F40E94D2
:10033000250386B1770C90E0827090709595879533
:10034000782A80EF781619F49981933019F0E981B1
:10035000E43051F40894810891088114910421F447
:100360000E94FE02198277242A813B81B9018827E5
:1003700077FD8095982F0E9494045B016C012BEA15
:100380003AEA4AE250E40E9448057B018C0120E0F1
:1003900030E040E85FE30E94FA03882314F461E050
:1003A00052C0C801B70120E030E04FE753E40E949B
:1003B000440518160CF043C0C601B50120E030E03A
:1003C0004AE754E40E94FE035B016C0120E030E048
:1003D0004AEF54E40E9448057B018C0120E030E0A4
:1003E00040E85FE30E94FA0388231CF461E070E0B8
:1003F00022C0C801B70120E03FEF4FE757E40E9459
:1004000044051816A4F4C601B50120E030E040E22E
:1004100051E40E9448050E94660405C0C20101978C
:10042000F1F76150704061157105C1F7D2CEC80176
:10043000B7010E946604CB010197F1F7CACEC8014B
:10044000B7010E9466046A95F1F7C3CE1F920F921E
:100450000FB60F9211248F93EF93FF9380910001B9
:10046000882391F0E0910101F09102018491809341
:10047000C6003196F0930201E093010180910001E2
:1004800081508093000105C08091C1008F7D8093D1
:10049000C100FF91EF918F910F900FBE0F901F90B1
:1004A00018951F920F920FB60F9211248F939F935E
:1004B000EF93FF93809105019091C600E6E0F1E093
:1004C000E80FF11D90838F5F8093050180910501F6
:1004D000877080930501FF91EF919F918F910F900D
:1004E0000FBE0F901F9018959091050180910E01FD
:1004F000981719F420E030E014C0F89490910E01A0
:10050000E92FF0E0EA5FFE4F8081282F30E0316074
:100510009F5F90930E0180910E01877080930E0172
:100520007894C9010895982F809100018823E1F7FC
:100530008091C00085FFFCCF9093C60008959C0178
:10054000809100018823E1F78091C00085FFFCCFF6
:100550006093000130930201209301018091C1005A
:1005600080628093C1000895FC018091000188237E
:10057000E1F78091C00085FFFCCF09C08091C000E9
:1005800085FFFCCF84918093C6003196615066232D
:10059000A9F708951092000110920E011092050122
:1005A0008CE090E09093C5008093C40088E980932C
:1005B000C1000895282FE82FE295EF70F0E0EA5F80
:1005C000FE4F9491809100018823E1F78091C00053
:1005D00085FFFCCF9093C600E22FF0E0EF70F07043
:1005E000EA5FFE4FE491809100018823E1F780915A
:1005F000C00085FFFCCFE093C60008958EE180BB6C
:1006000081B3817E81BB86E191E090930401809368
:1006100003010895E0910301F0910401849188237E
:1006200011F0282F07C0E7E1F1E0F0930401E09317
:10063000030124918091030190910401019690930C
:1006400004018093030121BB0895E0910301F0911F
:1006500004018491882311F0282F07C0EAE1F1E01A
:10066000F0930401E09303012491809103019091A0
:1006700004010197909304018093030121BB089525
:100680008EE180BB81B3817E81BB86E191E0909356
:1006900004018093030108958C9A8B9808958C9897
:1006A0008B9A08958A9A899808958A98899A0895C4
:1006B000129A80E29EE4FC013197F1F712980197BB
:1006C000F1F7089592B1977892B922B1982F969543
:1006D0009877922B92B9129A20E23EE4F901319771
:1006E000F1F71298F9013197F1F792B1977892B931
:1006F00092B1880F880F880F8877982B92B9129A39
:10070000C9010197F1F71298C9010197F1F708950E
:10071000109A92B1977892B922B1982F96959877BE
:10072000922B92B9129A20E23EE4F9013197F1F747
:100730001298F9013197F1F792B1977892B992B185
:10074000880F880F880F8877982B92B9129AC90161
:100750000197F1F71298C9010197F1F710980895E0
:100760008FE781B912B8149A88E893E128EC30E059
:10077000F9013197F1F70197D9F7129A80E29EE4D7
:10078000FC013197F1F712980197F1F788E893E1AE
:1007900028EC30E0F9013197F1F70197D9F780E2C1
:1007A0000E9462038CE00E94620381E00E94620367
:1007B00086E00E9462030895CF93DF93EC0103C0AB
:1007C0000E9488032196FE0184918823C9F7DF9156
:1007D000CF910895CF93DF93EC0103C00E9488036B
:1007E000219688818823D1F7DF91CF910895F894DD
:1007F0000C94AB05D4D008F481E008950CD00AC164
:1008000002D140F0F9D030F021F45F3F19F0EBC095
:10081000511134C1EEC00FD198F39923C9F3552378
:10082000B1F3951B550BBB27AA27621773078407E3
:1008300038F09F5F5F4F220F331F441FAA1FA9F399
:1008400033D00E2E3AF0E0E830D091505040E6958B
:10085000001CCAF729D0FE2F27D0660F771F881FEC
:10086000BB1F261737074807AB07B0E809F0BB0BDB
:10087000802DBF01FF2793585F4F2AF09E3F5105FF
:1008800068F0B1C0FBC05F3FECF3983EDCF38695A7
:1008900077956795B795F7959F5FC9F7880F911D75
:1008A0009695879597F90895E1E0660F771F881F61
:1008B000BB1F621773078407BA0720F0621B730B14
:1008C000840BBA0BEE1F88F7E0950895BCD088F032
:1008D0009F5790F0B92F9927B751A0F0D1F0660F2C
:1008E000771F881F991F1AF0BA95C9F712C0B13047
:1008F00081F0C3D0B1E00895C0C0672F782F88275A
:10090000B85F39F0B93FCCF3869577956795B39585
:10091000D9F73EF490958095709561957F4F8F4FF4
:100920009F4F0895E89409C097FB3EF490958095F9
:10093000709561957F4F8F4F9F4F9923A9F0F92FA5
:1009400096E9BB279395F695879577956795B79523
:10095000F111F8CFFAF4BB0F11F460FF1BC06F5F09
:100960007F4F8F4F9F4F16C0882311F096E911C01B
:10097000772321F09EE8872F762F05C0662371F03C
:1009800096E8862F70E060E02AF09A95660F771F50
:10099000881FDAF7880F9695879597F90895990F2C
:1009A0000008550FAA0BE0E8FEEF16161706E80739
:1009B000F907C0F012161306E407F50798F0621B5A
:1009C000730B840B950B39F40A2661F0232B242B2F
:1009D000252B21F408950A2609F4A140A6958FEF4E
:1009E000811D811D089597F99F6780E870E060E0A0
:1009F00008959FEF80EC089500240A9416161706B8
:100A000018060906089500240A94121613061406FF
:100A100005060895092E0394000C11F4882352F062
:100A2000BB0F40F4BF2B11F460FF04C06F5F7F4F1A
:100A30008F4F9F4F089557FD9058440F551F59F001
:100A40005F3F71F04795880F97FB991F61F09F3FBB
:100A500079F087950895121613061406551FF2CFE4
:100A60004695F1DF08C0161617061806991FF1CF34
:100A700086957105610508940895E894BB2766275B
:100A80007727CB0197F908958ADF08F48FEF08954F
:100A90000BD0C0CFB1DF28F0B6DF18F0952309F0F6
:100AA000A2CFA7CF1124EACFC6DFA0F3959FD1F341
:100AB000950F50E0551F629FF001729FBB27F00D0C
:100AC000B11D639FAA27F00DB11DAA1F649F662761
:100AD000B00DA11D661F829F2227B00DA11D621FB0
:100AE000739FB00DA11D621F839FA00D611D221F6A
:100AF000749F3327A00D611D231F849F600D211D4E
:100B0000822F762F6A2F11249F5750408AF0E1F0F0
:100B100088234AF0EE0FFF1FBB1F661F771F881F39
:100B200091505040A9F79E3F510570F05CCFA6CF81
:100B30005F3FECF3983EDCF3869577956795B79524
:100B4000F795E7959F5FC1F7FE2B880F911D96954E
:0A0B5000879597F90895F894FFCFF8
:00000001FF
