:100000000C9444000C9461000C9461000C94610009
:100010000C9461000C9461000C9461000C946100DC
:100020000C9461000C9461000C9461000C946100CC
:100030000C9461000C9461000C9461000C946100BC
:100040000C9461000C9461000C9461000C946100AC
:100050000C9461000C9461000C94610030313233D7
:100060003435363738396162636465660049503A21
:10007000004D41433A00447261696E202020002007
:10008000202020202020200011241FBECFEFD4E00C
:10009000DEBFCDBF11E0A0E0B1E0E2E3FEE002C0D0
:1000A00005900D92A030B107D9F711E0A0E0B1E0C2
:1000B00001C01D92A631B107E1F70E94F4010C9432
:1000C000CE060C9400006F9A779A80EF84B985B1C0
:1000D000806F85B983B3886183BB84B3886184BB37
:1000E000389A409A0895282F8E9A8330B1F0843040
:1000F00028F4813071F0823070F409C0853089F0C5
:10010000853068F0863079F0873079F00FC07798C5
:100110000DC02C980BC02D9809C02E9807C02F98A1
:1001200005C0A39803C0A49801C0409840E050E0E7
:1001300030E08E9888EC90E00197F1F78FB1992725
:10014000880F892F881F990B9195482B592B8E9AD0
:10015000440F551F3F5F303161F72330B1F0243039
:1001600028F4213071F0223070F409C0253089F074
:10017000253068F0263079F0273081F40EC0779A68
:100180000DC02C9A0BC02D9A09C02E9A07C02F9A29
:1001900005C0A39A03C0A49A01C0409ACA01089559
:1001A000282F8E988330B1F0843028F4813071F09C
:1001B000823070F409C0853089F0853068F086306F
:1001C00079F0873079F00FC077980DC02C980BC06C
:1001D0002D9809C02E9807C02F9805C0A39803C07A
:1001E000A49801C0409840E050E030E0440F551F13
:1001F0008E9A80ED97E00197F1F78FB19927880FDC
:10020000892F881F990B9195482B592B8E983F5F0A
:100210003D3061F72330B1F0243028F4213071F003
:10022000223070F409C0253089F0253068F026307E
:1002300079F0273081F40EC0779A0DC02C9A0BC04C
:100240002D9A09C02E9A07C02F9A05C0A39A03C001
:10025000A49A01C0409ACA019F700895EF92FF923C
:100260000F931F93CF93DF93CDB7DEB726970FB6CB
:10027000F894DEBF0FBECDBF80FD826081FD84603B
:1002800082FD886083FD806184FD8062B4E0969584
:100290008795BA95E1F7880F991F9C01F3E0220F2B
:1002A000331FFA95E1F7820F931F805C9E4F6AE03F
:1002B00070E00E9404077B014AE050E08E010F5F6E
:1002C0001F4FB801C7010E94CF06C8010E94D1028A
:1002D0008FED0E94AF0286E40E94AF0280E20E948E
:1002E000AF0280E20E94AF028E2D992726960FB6AC
:1002F000F894DEBF0FBECDBFDF91CF911F910F915C
:10030000FF90EF90089540E060E080E00E9473036A
:1003100080E00E94D00090930101809300010E9430
:100320002E0140E06AE080E00E94730381E00E94B9
:10033000D00090930301809302010E942E0140E0BF
:1003400064E180E00E94730382E00E94D0009093F9
:100350000501809304010E942E0140E06EE180E0DF
:100360000E94730383E00E94D00090930701809362
:1003700006010E942E0140E060E081E00E947303CC
:1003800084E00E94D00090930901809308010E94AC
:100390002E0140E06AE081E00E94730385E00E9444
:1003A000D00090930B0180930A010E942E0140E03F
:1003B00064E181E00E94730386E00E94D000909384
:1003C0000D0180930C010E942E0140E06EE181E05E
:1003D0000E94730387E00E94D00090930F018093E6
:1003E0000E010E942E010895CFEFD4E0DEBFCDBFF5
:1003F0000E9479020E945F060E9463000E948301AE
:100400000E944D05FBCF0F931F93CF93DF938C0179
:10041000CFE0D0E081E090E00C2E02C0880F991F61
:100420000A94E2F780239123892B11F081E301C024
:1004300080E30E94AF0221978FEFCF3FD80751F79B
:10044000DF91CF911F910F9108958C9A80ED97E0E5
:10045000FC013197F1F78C980197F1F708958D9A87
:1004600080ED97E0FC013197F1F78D980197F1F756
:1004700008951F93CF93DF93162FC82FDD27C4FF56
:1004800002C0739A01C07398C5FF02C0729A01C07E
:100490007298C6FF02C0889A01C0889887FF02C080
:1004A000899A01C08998112319F40E94250202C07B
:1004B0000E942F02C0FF02C0739A01C07398C1FF4F
:1004C00002C0729A01C07298C2FF02C0889A01C02D
:1004D0008898C3FF02C0899A01C08998112319F432
:1004E0000E94250202C00E942F02DF91CF911F912E
:1004F00008958CE08DB98FE780BB1EB811BA80E4F7
:100500009CE90197F1F7729A0E9425020E942F023E
:1005100060E088E20E94390260E08EE00E943902C9
:1005200060E081E00E94390260E086E00E943902CA
:1005300061E088E20E94390261E08EE00E943902A7
:1005400061E081E00E94390261E086E00E943902A8
:1005500008958B9A61E00E9439028B9808958B9AD6
:1005600060E00E9439028B980895CF93DF93EC01ED
:1005700003C00E94AF022196FE0184918823C9F72F
:10058000DF91CF910895CF93DF93EC0103C00E94D8
:10059000A9022196FE0184918823C9F7DF91CF91AA
:1005A0000895CF93DF93EC0103C00E94AF02219620
:1005B00088818823D1F7DF91CF910895CF93DF937E
:1005C000EC0103C00E94A902219688818823D1F7FB
:1005D000DF91CF9108950F931F93CF93DF938C01F9
:1005E000FC01EF2FFF27E295EF70CCE5D0E0EC0F98
:1005F000FD1FE4918E2F0E94AF02E12FFF27EF70C5
:10060000F070EC0FFD1FE4918E2F0E94AF02F801F5
:1006100084E0F695E7958A95E1F7EF70F070EC0FBE
:10062000FD1FE4918E2F0E94AF020F701070C00F5B
:10063000D11FFE0184910E94AF02DF91CF911F91E3
:100640000F9108950F931F93CF93DF938C01FC01BB
:10065000EF2FFF27E295EF70CCE5D0E0EC0FFD1F08
:10066000E4918E2F0E94A902E12FFF27EF70F07016
:10067000EC0FFD1FE4918E2F0E94A902F80134E0D7
:10068000F695E7953A95E1F7EF70F070EC0FFD1FE6
:10069000E4918E2F0E94A9020F701070C00FD11F1D
:1006A000FE0184910E94A902DF91CF911F910F91C9
:1006B00008951F93CF93DF93182F82958F70CCE509
:1006C000D0E0FE01E80FF11DE4918E2F0E94A902F7
:1006D0001F70C10FD11DFE0184910E94A902DF91FC
:1006E000CF911F910895962F9068882319F4642F55
:1006F000892F03C0642F892F805C0E9439020895DE
:10070000A29844989FEF91B982B9449AA29A11B8DD
:100710000895A2984598459A80B1A29A992708957C
:10072000FF920F931F938C01F62E4798469A812FC4
:1007300099270E948003479A4698802F0E94800341
:10074000479A469A8F2D0E9480031F910F91FF9028
:100750000895CF92DF92EF92FF920F931F936C0157
:100760004798469A8D2D99270E948003479A46986C
:100770008C2D0E9480034798469881E80E94800350
:10078000479A469A0E948903182F0E948903082FCE
:100790000E948903F82E0E948903E82E4798469804
:1007A00080E80E94800385E08A95F1F7C801B701CF
:1007B0001F910F91FF90EF90DF90CF900895CF920F
:1007C000DF92EF92FF920F931F937C01162FD42E8E
:1007D000C22E4798469A892F99270E948003479AEC
:1007E00046988E2D0E9480034798469881E80E9483
:1007F0008003479A469A812F0E9480038D2D0E9484
:1008000080038C2D0E948003802F0E9480034798D4
:10081000469880E80E94800385E08A95F1F71F9151
:100820000F91FF90EF90DF90CF9008950F931F935B
:100830008C014798469A892F99270E948003479AEE
:100840004698802F0E948003479A469A0E94890307
:1008500099271F910F9108956F927F928F929F9287
:10086000AF92BF92CF92DF92EF92FF920F931F93BE
:10087000CF93DF93CDB7DEB728970FB6F894DEBFDE
:100880000FBECDBF82EE91E00E94160415E0812FCD
:100890008A95F1F788E490E00E94A9034B015C017E
:1008A00080EF91E00E9416041A95F1F780E490E041
:1008B0000E94A9037F718070907060931001709303
:1008C0001101809312019093130150E0E52E51E045
:1008D000F52E6E010894C11CD11C49E0642E712CC8
:1008E0006C0E7D1E88E0F60111928A95E9F74AE0C8
:1008F00050E0B601F701808191810E94CF06860108
:100900001FC08091100190911101A0911201B0912E
:1009100013010196A11DB11D809310019093110147
:10092000A0931201B09313010197A109B10980505E
:10093000904C0E9490030F5F1F4F0615170521F082
:10094000F80160816623E9F6809110019091110110
:10095000A0911201B09113010196A11DB11D8093C8
:10096000100190931101A0931201B093130101970C
:10097000A109B1098050904C6CE20E94900382E082
:1009800090E0E80EF91E90E1E91691E0F90609F011
:10099000A9CF8091100190911101A0911201B09105
:1009A00013010196A11DB11D8093100190931101B7
:1009B000A0931201B09313010197A109B1098050CE
:1009C000904C6DE00E949003809110019091110174
:1009D000A0911201B09113010196A11DB11D809348
:1009E000100190931101A0931201B093130101978C
:1009F000A109B1098050904C6AE00E94900341E047
:100A00006AE081E00E9473038091140190911501C6
:100A10000196909315018093140101970E9422037F
:100A20008AE390E00E94A902809110019091110147
:100A30000E9422038AE390E00E94A902C4010E945E
:100A4000220380E090E00E94160485FDFACF009119
:100A5000100120911101409112016091130180E475
:100A600090E00E94DF0360E280E090E00E9490034B
:100A700028960FB6F894DEBF0FBECDBFDF91CF91A1
:100A80001F910F91FF90EF90DF90CF90BF90AF90AC
:100A90009F908F907F906F9008951F9380EA90E0D1
:100AA0000E941604182F41E060E081E00E94730369
:100AB000812F99270E942203112319F0163089F5FE
:100AC00023C061E081EA90E00E94900360E08EEA3A
:100AD00090E00E94900367E18FEA90E00E9490030B
:100AE00062E080E090E00E94900384E090E00E9449
:100AF00016048823D1F381FF14C060E084E090E005
:100B00000E94900368E009C00E942C0480E090E0FD
:100B10000E94160485FDFACF60E180E090E00E941B
:100B200090031F91089541E06EE181E00E947303FC
:100B300086E790E00E94C30282EE91E00E941604D4
:100B400085E08A95F1F788E490E00E94A90320915E
:100B5000100130911101409112015091130126179B
:100B600037074807590741F741E06EE181E00E94ED
:100B700073038FE790E00E94C302089581E790E03D
:100B80000E94C30288E890E00E94160499270E9400
:100B900059038AE390E00E94A90289E890E00E944C
:100BA000160499270E9459038AE390E00E94A90243
:100BB0008AE890E00E94160499270E9459038AE36C
:100BC00090E00E94A9028BE890E00E941604992709
:100BD0000E9459038AE390E00E94A9028CE890E009
:100BE0000E94160499270E9459038AE390E00E940C
:100BF000A9028DE890E00E94160499270E945903EB
:100C000008950F931F93CF93DF93CDB7DEB724974B
:100C10000FB6F894DEBF0FBECDBF8DE690E00E9408
:100C2000C3028EE890E00E9416044AE050E08E0174
:100C30000F5F1F4FB80199270E94CF06C8010E947D
:100C4000DE028EE290E00E94A9028FE890E00E940E
:100C500016044AE050E0B80199270E94CF06C80167
:100C60000E94DE028EE290E00E94A90280E990E0FC
:100C70000E9416044AE050E0B80199270E94CF066E
:100C8000C8010E94DE028EE290E00E94A90281E982
:100C900090E00E9416044AE050E0B80199270E94B3
:100CA000CF06C8010E94DE0224960FB6F894DEBF7C
:100CB0000FBECDBFDF91CF911F910F9108950F937C
:100CC0009A9A3D9A3C9A3E9A3F9A3B9A439880ED75
:100CD00097E00197F1F7A29A459A449A439A479868
:100CE000469880E80E94800360E880E090E00E94DF
:100CF000900363E085E990E00E94900363E086E959
:100D000090E00E94900301E021E048EA60EC80E876
:100D100090E00E94DF0300E02FEF4FEF6FEF84E8D9
:100D200090E00E94DF030DEB22EF45E160E088E8F0
:100D300090E00E94DF036CED8CE890E00E9490034D
:100D400063E98DE890E00E94900300E621E048EA24
:100D500060EC8EE890E00E94DF0361E080E090E0CC
:100D60000E94900384E090E00E94160480FFFACF76
:100D70000E94010680E290E00E94A9020E94BE0546
:100D8000109215011092140110921001109211018D
:100D900010921201109213010F91089549C0E62F8D
:100DA000F72F2E2F3F2FE8944230C4F04532B4F491
:100DB0004A3029F497FB1EF4909581959F4F642F3C
:100DC000772722D0805D8A330CF0895D8193862F4E
:100DD000972F0097A1F716F45DE251931082822FAE
:100DE000932F00C0A82FB92FE82FF92F672F7191EB
:100DF0007723E1F7329704C07C916D937083629101
:100E0000AE17BF07C8F30895AA1BBB1B51E107C06B
:100E1000AA1FBB1FA617B70710F0A61BB70B881F8A
:100E2000991F5A95A9F780959095BC01CD01089519
:020E3000FFCFF2
:00000001FF
