:100000000C94EF020C940C030C940C030C940C0352
:100010000C940C030C940C030C940C030C940C0324
:100020000C940C030C940C030C940C030C940C0314
:100030000C94EC0B0C940C030C940C030C940C031C
:100040000C940C030C940C030C940C030C940C03F4
:100050000C940C030C940C030C940C03280004283F
:1000600000032800022800012800002B00003400B3
:100070000434000325000725000634000222000690
:100080002200042200022200003400012800063170
:1000900000063100043100023100002E000325006B
:1000A000052B00022800072200072200052200037A
:1000B000220001340000280005310007310005311D
:1000C00000033100012E00022500042B0001303115
:1000D000323334353637383961626364656600001F
:1000E0000000003E5551553E3E6B6F6B3E1C3E7C02
:1000F0003E1C081C3E1C08085E775E080C5E7F5E96
:100100000C000000000000000000000000000000E3
:10011000000000000030484D3307262979292620A9
:10012000503F0300607F05353F2A1C771C2A7F3E25
:100130001C0800081C3E7F0014367F3614005F0048
:100140005F000E117F107F204A552920303030305B
:100150000054767F765404067F060410307F3010FA
:1001600008083E1C08081C3E0808001C1C1010084B
:100170001C081C0810181C1810040C1C0C0400008F
:10018000000000005F0000000003000300143E14A4
:100190003E14242A7F2A122313086462364956200B
:1001A000500002010000001C2241000041221C00FE
:1001B0002A1C7F1C2A08083E08084060200000080E
:1001C00008080800006060000020100804023E518A
:1001D00049453E00427F4000426151494622414923
:1001E00049361814127F1027454545393C4A49497C
:1001F0003003017109073649494936064949291E24
:100200000036360000004076360008142241001403
:1002100014141400412214080002015909063E4139
:100220005D555E7C1211127C7F494949363E414141
:1002300041227F4141413E7F494949417F090909A6
:10024000003E4149493A7F0808087F00417F41004C
:100250002040403F007F081422417F404040407FC3
:10026000020C027F7F0204087F3E4141413E7F092C
:100270000909063E4151215E7F091929462649494F
:10028000493201017F01013F4040403F1F20402093
:100290001F3F4038403F6314081463070870080785
:1002A0006151494543007F410000020408102000CD
:1002B000417F000000040204004040404040000133
:1002C00002000020545454787F4444443838444455
:1002D0004444384444447F3854545458047E0501FF
:1002E00000485454543C7F0804047800007D00000A
:1002F00020403D00007F1028440000007F0000786F
:10030000041804787C0804047838444444387C1485
:100310001408000814147C007C0804040048545499
:10032000542400047F44003C40403C000C304030EA
:100330000C3C4030403C44281028444C50503C0079
:100340004464544C4400083641000000770000002B
:100350004136080004020408047048444870050748
:10036000304848050710781405077820507101714E
:100370004E00415D55413E20555654782057555703
:100380007814147F14140020102000130B041A1981
:10039000485556552400081422003E417F49490023
:1003A0003E223E004465564D44003E223E00303819
:1003B0003C30203D40403D00000B7000000E0D0021
:1003C0000E0D0B70000B701C3E3E3E1C0008080812
:1003D0000008080808082010201000107010707025
:1003E0004855565524002214080038447C545800BF
:1003F0003E223E004465564D440C1170110C000025
:10040000000000007D7D00001C227F22144A6D59EF
:100410004922221C141C222B2C7C2C2B00777700C9
:1004200000204A55292030300030303E5D63553E73
:100430000815151E0008142A1422080808180000C0
:100440000808080055555555552A2A2A2A2A552A9A
:10045000552A557F007F007F102220221010222075
:1004600022112012101220102A282A1010123052A5
:10047000302012201220402210121000121F1000F3
:100480000E11110E0022142A1408170834227917AD
:10049000084C6A51121010120030484D403070293B
:1004A0002628707028262970702A252A707229261D
:1004B0002970702924297070282528707E097F49A9
:1004C000490E5151310A7C555644447C565544449A
:1004D0007C565546007D5455440000457E4400003E
:1004E000447E450000467D460000457C4500497F2E
:1004F00049413E7C0A11227D3845464438384446FD
:10050000453838464546383A4546453838454445E5
:100510003844281028443E5149453E3C4142403C25
:100520003C4042413C3C4241423C3C4140413C0C0D
:100530001072110C7F141408007E29494E3020558A
:10054000565478205456557820565556782255568C
:1005500055782055545578205455547874547C540B
:100560005C005C622214385556544838545655483D
:100570003856555648385554554800107A000000F2
:10058000007A1000002079200000207820005032EE
:100590004D48300103070F7F7E7E7E7E7E7C7C7C13
:1005A0007C7C78787878787070707070606060604B
:1005B0006040404040407F000000007F7F0000001E
:1005C0007F7F7F00007F7F7F7F007F4141417F00F1
:1005D0003E223E0000001C00000000080000112424
:1005E0001FBECFEFD4E0DEBFCDBF11E0A0E0B1E091
:1005F000E4EDF8E102C005900D92A830B107D9F7FB
:1006000011E0A8E0B1E001C01D92AD37B107E1F7FC
:100610000E941D030C944A0C0C94000090910A0156
:10062000EFE6F1E0E90FF11D80839F5F97709093F3
:100630000A0181E080930E010895CF9314BE88E1F2
:100640000FB6F89480936000109260000FBE0E9475
:10065000350A0E946E070E941F0C7894C0E0CF5F9D
:100660008C2F90E08F70907021E030E0009711F0B7
:1006700020E030E080910E0190E0822393230097E8
:10068000B1F0F89490910B01E92FF0E0E159FE4FA1
:1006900080819F5F977090930B0120910A01291729
:1006A00011F410920E0178940E945D0AD8CF8091C7
:1006B00000018823A1F20E941006D1CFCF93DF93CF
:1006C00090E029E230E0829FF001839FF00D929F3D
:1006D000F00D1124E05FFE4F138A4381DF01539632
:1006E00018C04617E9F04C91EF01C40FD11D2B81C2
:1006F0002F7030E02730310528F42F5F3E4FE9019D
:10070000288101C020E0240F2C93EF01C20FD11DDE
:100710004B81242F30E02F7030702F30310509F7D6
:1007200049E250E0849FF001859FF00D949FF00D09
:100730001124E05FFE4F8389DF01A80FB11D1396DE
:100740006C9313978F5F838B2F30310521F4E80F63
:10075000F11D8FE08383DF91CF910895462F50E004
:1007600021E030E002C0220F331F6A95E2F72150EA
:10077000FC01799630E087E090E0841B950BA08126
:100780006A2F70E0042E02C0759567950A94E2F70F
:10079000A223B0E0082E02C0AA0FBB1F0A94E2F702
:1007A0006A2B61933F5F353051F70895FC010BC010
:1007B000818D928D918F938D928F948D938F958D46
:1007C000948F858F6150662399F708952F923F92F9
:1007D0004F925F927F928F929F92AF92BF92CF92F1
:1007E000DF92EF92FF920F931F93DF93CF9300D08E
:1007F00000D000D0CDB7DEB790E029E230E0829F94
:10080000D001839FB00D929FB00D11249D01205FF8
:100810003E4F3E832D83F9014081228124FF0BC08E
:100820002489218F2589228F2689238F2789248F48
:10083000208D258F14C025E0429FA0011124425233
:100840005F4FA75DBE4F20E030E0FA01E20FF31FDB
:10085000E491ED932F5F3F4F25303105B1F749E229
:1008600050E0849F9001859F300D949F300D11249E
:10087000F901E05FFE4F118288E0878F138A838140
:100880008F0173E1E72EF12CEE0EFF1E61E0462E84
:10089000512C57E0C52E49E2A42E41E0B42EA20E01
:1008A000B31E95E0D92EB9E12B2E312C2E0E3F1E12
:1008B000ADE18A2E912C8E0E9F1E9F01265E3F4F2A
:1008C0003A8329837C96FC83EB832CC18530910588
:1008D00074F4833091050CF05AC081309105A1F178
:1008E000823091050CF049C0009751F003C185306A
:1008F000910509F47FC08630910509F0FBC0C6C0A0
:10090000F50140E0808190E09C0125753070220F58
:10091000331F8A7A907095958795822B90E09C0181
:1009200023733070220F331F220F331F8C7C907083
:100930009595879595958795822B82958695819338
:100940004F5F4530F9F6D6C0F1018081F401908106
:10095000F1019083E981FA819081F4019083EB8128
:10096000FC819081E981FA819083F4019081EB818F
:10097000FC819083F4018083BDC0F50190E080810B
:1009800080958F7781939F5F9530C9F7B3C0F7014A
:100990008081F801E80FF11D6481862F90E0807F4F
:1009A00090708032910591F0813291052CF4803164
:1009B000910509F09FC008C08033910581F0803413
:1009C000910509F097C00DC06F7004C06F70FC2DC9
:1009D000F61B6F2F8D819E810E94AE038BC06F70BE
:1009E00004C06F702D2D261B622F8D819E810E9469
:1009F000D60380C0F7018081F801E80FF11D648102
:100A0000862F90E0807F90708031910529F08032B0
:100A1000910509F06FC021C09FE0792E76228D816B
:100A20009E81672D0E94AE03C201072C02C0880F71
:100A3000991F0A94E2F701972C2D271902C0880FFD
:100A4000991F2A95E2F78095F50190E020812823EF
:100A500021939F5F9530D1F74DC08FE0782E76229D
:100A60006C2D67198D819E810E94AE03B20102C078
:100A7000660F771F7A94E2F76195F50180E0908127
:100A8000962391938F5F8530D1F734C0F701808131
:100A9000F801E80FF11D7480872D90E0807F907041
:100AA0008033910521F08034910521F514C0FFE0D9
:100AB0007F228D819E81672D0E94D6038D2D8719FF
:100AC00090E07A94F801E70DF11DE80FF91F118EFF
:100AD0007720B9F70FC02FE072226D2D67198D8135
:100AE0009E810E94D6037A94F801E70DF11D118EC4
:100AF0007720C9F7F7012081F801E20FF11D83810A
:100B00008F7090E08730910528F48F5F9E4FFC0135
:100B1000808101C080E0820FF7018083F801E80F37
:100B2000F11D838190E08F7090708F30910509F0F6
:100B3000CDCE26960FB6F894DEBF0FBECDBFCF91B7
:100B4000DF911F910F91FF90EF90DF90CF90BF90BA
:100B5000AF909F908F907F905F904F903F902F909D
:100B60000895CF93DF9390E029E230E0829FF00177
:100B7000839FF00D929FF00D1124E05FFE4F138ACA
:100B800023812F70DF01539645C0261761F530E0B1
:100B90002730310528F42F5F3E4FD901EC9101C079
:100BA000E0E029E230E0829FA001839F500D929FF8
:100BB000500D11249A012D5E3E4F405F5E4FEA01B9
:100BC0008B8990E0F0E0BF01680F791F620F731FFF
:100BD00040E150E0481B590B4E1B5F0B820F931FE7
:100BE0000E944D0C1AC04C91EF01C40FD11D2B81F6
:100BF0002F7030E02730310528F42F5F3E4FE90198
:100C0000288101C020E0240F2C93EF01C20FD11DD9
:100C10002B812F702F3009F0B8CFDF91CF9108953D
:100C20002F923F924F925F926F927F928F929F92FC
:100C3000AF92BF92CF92DF92EF92FF920F931F93EA
:100C4000DF93CF93CDB7DEB729970FB6F894DEBF09
:100C50000FBECDBF81E191E0DC0190966624772440
:100C60001C821B824424552421E030E098878F8326
:100C7000EF81F885F181FE83EF81F885168D008183
:100C8000F3E00F9F600111244B815C81C40ED51EDF
:100C90006CE570E0C60ED71E8D919C91119712964F
:100CA000AD90BC9013971730F1F4002311F5EF814C
:100CB000F885478D442321F4A3014C555F4F03C0B1
:100CC000A30146585F4F11965C934E934D915C91F2
:100CD00011978417950769F013969C938E9312973A
:100CE0005C01CA0106C0173020F4EF81F885F58C4D
:100CF00010C069E270E0469EA001479E500D569ECE
:100D0000500D1124405F5E4F400F511DFA01F18CD0
:100D100010E0F6014491642F70E07A836983329683
:100D200024901123C9F41496ED91FC911597A90113
:100D300016960C90169702C0440F551F0A94E2F7BE
:100D40006081642B6083E981FA811596FC93EE93B0
:100D5000149716962C921697CC24DD249924802E75
:100D6000A501E22C2F8038845D01FC01A491B0E044
:100D7000BC016E5F7F4FFB01F491FD83FA0164912A
:100D8000E62FF0E0F887EF83FA013296E491B9019B
:100D900002C0660F771FEA95E2F7762F7095EF8114
:100DA000F885608167236083F92DF23010F4C11655
:100DB00068F4B9010D8002C0660F771F0A94E2F74C
:100DC000E62FE0956C916E236C932BC06F2D70E035
:100DD0000C2C02C0759567950A94E2F7EC91E987AF
:100DE000F9010D8002C0EE0FFF1F0A94E2F7F887A9
:100DF000EF8360FF11C0EF81F985EF2BEC939394A3
:100E0000B9010C2C02C0660F771F0A94E2F78B0120
:100E10000095F0221C2D05C0EF81E0957985E72330
:100E2000EC930894C11CD11CE7E0CE16D10421F04C
:100E300003964D5F5F4F99CF082D38862F82D501DD
:100E4000FE81F5FD0EC0F9010E2C02C0EE0FFF1F52
:100E50000A94E2F79E2F9095E981FA818081892397
:100E60008083EF81F885F58EFF2029F40F5F053030
:100E700009F400E017E0EF81F885168F00830894ED
:100E8000411C511CB996F887EF834B815C81415F0F
:100E90005F4F5C834B83999665E170E0660E771E29
:100EA00072E04716510409F0E3CE29960FB6F89484
:100EB000DEBF0FBECDBFCF91DF911F910F91FF908D
:100EC000EF90DF90CF90BF90AF909F908F907F90EA
:100ED0006F905F904F903F902F90089582E5E0E1F2
:100EE000F1E0DF011D928A95E9F78FE0809313010D
:100EF00080933C0185B7846085BF83EC8EB94FEF4A
:100F000041B984B1806F84B947B98FE78AB98CE061
:100F10008DB940BB9FE193BB85B1806C85B998B911
:100F200089EF8BB98EB1837F8EB988E184BB11BA0A
:100F300084E08093110180933A018AE790E09093D6
:100F40003201809331019C012B5E3F4F30935B0156
:100F500020935A01909334018093330130935D01C3
:100F600020935C0187E080932F0180935801409388
:100F70003801409361010895482F50E029E230E0A4
:100F8000429FF001439FF00D529FF00D1124E05F4E
:100F9000FE4F60830E94E6030895CF93C82F662317
:100FA00019F0613041F404C062E00E94B10503C051
:100FB00062E00E945E038C2F0E94E603CF910895A9
:100FC000CF93C82F662319F0613041F404C060E06C
:100FD0000E94B10503C060E00E945E038C2F0E9456
:100FE000E603CF910895CF93C82F662319F061309F
:100FF00041F404C061E00E94B10503C061E00E94B9
:101000005E038C2F0E94E603CF910895662319F0AA
:10101000613009F510C0482F50E029E230E0429FCE
:10102000F001439FF00D529FF00D1124E05FFE4F41
:1010300092819F7E0FC0482F50E029E230E0429F0E
:10104000F001439FF00D529FF00D1124E05FFE4F21
:101050009281906192830E94E603089590E0662356
:1010600071F029E230E0829FF001839FF00D929FA2
:10107000F00D1124E05FFE4F828180620DC029E2F5
:1010800030E0829FF001839FF00D929FF00D1124BC
:10109000E05FFE4F82818F7D828308950F931F93BF
:1010A000CF93DF93182F042F4423A9F46C3671F0EB
:1010B0006D3620F4643609F050C005C0623731F057
:1010C000653709F04AC0812F65E002C0812F66E0D4
:1010D0000E94B10542C0C82FD0E06C3699F06D3641
:1010E00018F46436D1F509C0623789F06537A9F57F
:1010F00065E00E945E0300610EC065E00E945E0331
:10110000006209C066E00E945E03006304C066E0FE
:101110000E945E03006489E290E0C89FF001C99FCD
:10112000F00DD89FF00D1124DF01A05FBE4F539644
:101130008C91539790E0A80FB91F13962C91139799
:101140002F3049F413960C931397E80FF91FED5EB7
:10115000FE4F218302C013960C93812F0E94E60359
:10116000DF91CF911F910F9108950F931F93CF930C
:10117000DF93182F042F4423A9F46C3671F06D36D9
:1011800020F4643609F050C005C0623731F065378D
:1011900009F04AC0812F63E002C0812F64E00E9401
:1011A000B10542C0C82FD0E06C3699F06D3618F406
:1011B0006436D1F509C0623789F06537A9F563E077
:1011C0000E945E0300610EC063E00E945E03006245
:1011D00009C064E00E945E03006304C064E00E94F2
:1011E0005E03006489E290E0C89FF001C99FF00DA2
:1011F000D89FF00D1124DF01A05FBE4F53968C9154
:10120000539790E0A80FB91F13962C9113972F3086
:1012100049F413960C931397E80FF91FED5EFE4FF8
:10122000218302C013960C93812F0E94E603DF9165
:10123000CF911F910F91089590E029E230E0829FB5
:10124000F001839FF00D929FF00D1124E05FFE4F9F
:1012500060A30895482F50E029E230E0429FF0015A
:10126000439FF00D529FF00D1124E05FFE4F138A53
:101270009FE093830E94E6030895A82FB0E029E23F
:1012800030E0A29FF001A39FF00DB29FF00D11245A
:10129000E05FFE4FDF01A60FB11D54964C935497AB
:1012A000928194FF02C00E94E6030895A82FB0E047
:1012B00030E06130C1F469E270E0A69FF001A79FC1
:1012C000F00DB69FF00D1124E05FFE4FE20FF31F0B
:1012D00021E030E002C0220F331F4A95E2F79489E3
:1012E000922B948B18C069E270E0A69FF001A79F33
:1012F000F00DB69FF00D1124E05FFE4FE20FF31FDB
:1013000021E030E002C0220F331F4A95E2F720951A
:1013100094892923248B482F50E029E230E0429F12
:10132000F001439FF00D529FF00D1124E05FFE4F3E
:10133000928194FF02C00E94E603089595E0699FA0
:10134000B001112462527F4F482F50E029E230E073
:10135000429FD001439FB00D529FB00D1124AC5D50
:10136000BE4F20E030E0FB01E20FF31FE491ED936C
:101370002F5F3F4F25303105B1F70E94E6030895F6
:101380006835F9F480916E008E7F80936E00E09155
:101390007701F0917801A0917901B0917A0181E013
:1013A00090E00C9002C0880F991F0A94E2F7809594
:1013B0009291982390838FEF8093380180936101FD
:1013C00008956530C0F48295807F862B8093380124
:1013D00070E0CB01880F991F860F971FFC01E45A1C
:1013E000FF4FE491E093770110927801825A9F4F6A
:1013F000FC0184911DC0962F95509530E8F482959C
:10140000807F862B8093610170E065507040CB0136
:10141000880F991F860F971FFC01E559FF4FE49134
:10142000E09377011092780183599F4FFC018491DA
:101430008093790110927A01E0917701F09178011F
:10144000A0917901B0917A0181E090E00C9002C006
:10145000880F991F0A94E2F72291282B208380910C
:101460006E00816080936E000895109208011092C2
:10147000660110920901089520E030E0F901E2537D
:10148000FF4FE4918E1731F02F5F3F4F2031310530
:10149000A9F720E0822F8295807F20E030E0F901DB
:1014A000E253FF4FE4916E1711F4822B08952F5FE2
:1014B0003F4F2031310599F70895CF93DF93C091C5
:1014C0000801CC2309F40BC190910901E92FF0E048
:1014D000EE59FE4F80839F5F9093090180916601D2
:1014E000815080936601882309F073C16091620185
:1014F00081E0603309F480E02C2F30E02F7D3070E4
:101500002C34310509F47CC02D343105E4F4233446
:10151000310509F443C02434310544F42134310544
:1015200079F12234310509F0B6C031C027343105D4
:1015300009F442C02934310509F45BC02634310571
:1015400009F0A9C032C02235310509F47AC023352B
:1015500031054CF42D34310509F45FC020353105D7
:1015600009F099C061C02435310509F47AC02435E9
:1015700031050CF46EC02A35310509F08CC07EC0EF
:1015800081E0C13609F480E00E94BC07A3C061E09D
:10159000C23609F060E00E942E089CC061E0C336AC
:1015A00009F060E00E94060895C061E0C63609F4C3
:1015B00060E00E94E0078EC080E00E943C0A880F35
:1015C000880F880F2BB1982F97689223982B9BB97F
:1015D0008CB1837CE82FE295EF70F0E090E08370AF
:1015E0009070E82BF92BE253FF4F84910E94390C45
:1015F00071C061E0C93609F060E00E94CD076AC0A1
:10160000862F609163010E943C0A682F81E0CC36EE
:1016100009F480E00E941C095DC061E0CD3609F04C
:1016200060E00E94F30756C0862F609163010E941C
:101630003C0A682F81E0C03709F480E00E949E09CF
:1016400049C0409164014053609163010E94B50814
:1016500041C0409164014053609163010E944E0873
:1016600039C061E0C43709F060E040916301405344
:101670002091640120530E9456092CC0CA3531F0D4
:10168000862F805360916301605302C088E568E54E
:101690000E94C0091FC0C13219F40E942A091AC051
:1016A000DC2FD053D53048F4862F609163010E941F
:1016B0003C0A482F80E06D2F0BC0C553C53050F455
:1016C000862F609163010E943C0A482F81E06C2FB5
:1016D0000E943D0910920801109209017AC01092EF
:1016E000660110920901823509F44CC0833538F542
:1016F0008434B0F4813408F045C08F3209F45CC002
:10170000803350F48A3209F44BC08B3209F457C04D
:10171000813209F05CC036C08A3308F058C036C048
:10172000893481F18A3418F4982F965418C08D3476
:1017300049F1803559F18C3409F049C027C0893608
:1017400009F18A3678F4843640F48136D8F4843549
:1017500019F18A3509F03BC019C0982F965692307E
:10176000B0F510C0803791F0813728F48C3671F0D5
:101770008D3669F507C0823750F1853768F08A37B2
:1017800031F504C08093080181E003C08093080113
:1017900082E0809366011DC08093080183E0F9CF49
:1017A00029E088E190E00FB6F894A8958093600056
:1017B0000FBE209360000DC00E94100608C081E09B
:1017C00090910001911180E08093000102C010927D
:1017D0000801DF91CF9108951F920F920FB60F92DB
:1017E00011248F939F93EF93FF9380910A019EB5ED
:1017F000E82FF0E0E159FE4F90838F5F8770809370
:101800000A0181E080930E0180910D0190910C01FD
:10181000981759F0E82FF0E0E959FE4F90819EBDEE
:101820008F5F877080930D0101C01EBCFF91EF9107
:101830009F918F910F900FBE0F901F901895DF937F
:10184000CF930F92CDB7DEB7239AE4E6F0E0808124
:101850008B7F80831EBC8EB589838EB589838DB5C1
:1018600089838EB5898380EC8CBD0F90CF91DF91F9
:101870000895F89490910C01E7E6F1E0E90FF11D6D
:101880008083892F8F5F877080930C0178940895EF
:1018900080E00895F8940C94680C6817790768F450
:1018A000FB01DC01E40FF51FA40FB51F02C002907D
:1018B0000E9241505040D8F708950C945F0CFB01F4
:1018C000DC0102C001900D9241505040D8F70895BC
:0418D000F894FFCFBA
:00000001FF
