:100000000C94EF020C940C030C940C030C940C0352
:100010000C940C030C940C030C940C030C940C0324
:100020000C940C030C940C030C940C030C94590BBF
:100030000C94F40A0C940C030C940C030C940C0315
:100040000C940C030C940C030C940C030C940C03F4
:100050000C940C030C940C030C940C03280004283F
:1000600000032800022800012800002B00003400B3
:100070000434000325000725000634000222000690
:100080002200042200022200003400012800063170
:1000900000063100043100023100002E000325006B
:1000A000052B00022800072200072200052200037A
:1000B000220001340000280005310007310005311D
:1000C00000033100012E00022500042B0001303115
:1000D000323334353637383961626364656600001F
:1000E0000000003E5551553E3E6B6F6B3E1C3E7C02
:1000F0003E1C081C3E1C08085E775E080C5E7F5E96
:100100000C000000000000000000000000000000E3
:10011000000000000030484D3307262979292620A9
:10012000503F0300607F05353F2A1C771C2A7F3E25
:100130001C0800081C3E7F0014367F3614005F0048
:100140005F000E117F107F204A552920303030305B
:100150000054767F765404067F060410307F3010FA
:1001600008083E1C08081C3E0808001C1C1010084B
:100170001C081C0810181C1810040C1C0C0400008F
:10018000000000005F0000000003000300143E14A4
:100190003E14242A7F2A122313086462364956200B
:1001A000500002010000001C2241000041221C00FE
:1001B0002A1C7F1C2A08083E08084060200000080E
:1001C00008080800006060000020100804023E518A
:1001D00049453E00427F4000426151494622414923
:1001E00049361814127F1027454545393C4A49497C
:1001F0003003017109073649494936064949291E24
:100200000036360000004076360008142241001403
:1002100014141400412214080002015909063E4139
:100220005D555E7C1211127C7F494949363E414141
:1002300041227F4141413E7F494949417F090909A6
:10024000003E4149493A7F0808087F00417F41004C
:100250002040403F007F081422417F404040407FC3
:10026000020C027F7F0204087F3E4141413E7F092C
:100270000909063E4151215E7F091929462649494F
:10028000493201017F01013F4040403F1F20402093
:100290001F3F4038403F6314081463070870080785
:1002A0006151494543007F410000020408102000CD
:1002B000417F000000040204004040404040000133
:1002C00002000020545454787F4444443838444455
:1002D0004444384444447F3854545458047E0501FF
:1002E00000485454543C7F0804047800007D00000A
:1002F00020403D00007F1028440000007F0000786F
:10030000041804787C0804047838444444387C1485
:100310001408000814147C007C0804040048545499
:10032000542400047F44003C40403C000C304030EA
:100330000C3C4030403C44281028444C50503C0079
:100340004464544C4400083641000000770000002B
:100350004136080004020408047048444870050748
:10036000304848050710781405077820507101714E
:100370004E00415D55413E20555654782057555703
:100380007814147F14140020102000130B041A1981
:10039000485556552400081422003E417F49490023
:1003A0003E223E004465564D44003E223E00303819
:1003B0003C30203D40403D00000B7000000E0D0021
:1003C0000E0D0B70000B701C3E3E3E1C0008080812
:1003D0000008080808082010201000107010707025
:1003E0004855565524002214080038447C545800BF
:1003F0003E223E004465564D440C1170110C000025
:10040000000000007D7D00001C227F22144A6D59EF
:100410004922221C141C222B2C7C2C2B00777700C9
:1004200000204A55292030300030303E5D63553E73
:100430000815151E0008142A1422080808180000C0
:100440000808080055555555552A2A2A2A2A552A9A
:10045000552A557F007F007F102220221010222075
:1004600022112012101220102A282A1010123052A5
:10047000302012201220402210121000121F1000F3
:100480000E11110E0022142A1408170834227917AD
:10049000084C6A51121010120030484D403070293B
:1004A0002628707028262970702A252A707229261D
:1004B0002970702924297070282528707E097F49A9
:1004C000490E5151310A7C555644447C565544449A
:1004D0007C565546007D5455440000457E4400003E
:1004E000447E450000467D460000457C4500497F2E
:1004F00049413E7C0A11227D3845464438384446FD
:10050000453838464546383A4546453838454445E5
:100510003844281028443E5149453E3C4142403C25
:100520003C4042413C3C4241423C3C4140413C0C0D
:100530001072110C7F141408007E29494E3020558A
:10054000565478205456557820565556782255568C
:1005500055782055545578205455547874547C540B
:100560005C005C622214385556544838545655483D
:100570003856555648385554554800107A000000F2
:10058000007A1000002079200000207820005032EE
:100590004D48300103070F7F7E7E7E7E7E7C7C7C13
:1005A0007C7C78787878787070707070606060604B
:1005B0006040404040407F000000007F7F0000001E
:1005C0007F7F7F00007F7F7F7F007F4141417F00F1
:1005D0003E223E0000001C00000000080000112424
:1005E0001FBECFEFD4E0DEBFCDBF11E0A0E0B1E091
:1005F000ECE0F7E102C005900D92A230B107D9F707
:1006000011E0A2E0B1E001C01D92A737B107E1F708
:100610000E940E030C94660B0C940000CFEFD4E004
:10062000DEBFCDBF14BE88E10FB6F89480936000A2
:10063000109260000FBE0E9431090E94E4080E94DF
:10064000270B7894809108018130B9F4F894809157
:100650000501E82FFF27E759FE4FE0818F5F877084
:100660008093050190910401981711F410920801EC
:1006700078948E2F0E945B09E5CF8091000188233A
:1006800009F30E944403DECF2F923F924F925F9274
:100690006F927F928F929F92AF92BF92CF92DF9292
:1006A000EF92FF920F931F93CF93DF93CDB7DEB7F7
:1006B00027970FB6F894DEBF0FBECDBF9AE0692E24
:1006C00091E0792E8EE1E82EF12CE60CF71C222425
:1006D000332444245524F301F281FB83F701318153
:1006E000F301B18083E0B89EA0011124420D531D97
:1006F000445A5F4FF701A381B481858196819F831E
:100700008E833730D9F4BB20F1F48281882321F421
:10071000C2018C559F4F04C0C20186589F4FF701FC
:1007200094838383F70183819481A817B90759F0D3
:10073000B683A583BF83AE83DC0105C0373018F4D0
:10074000F701A08005C0F301EB0DF11DA18C30E095
:10075000FA018491882E99244E5F5F4FFA01F4913B
:10076000F983332321F01A82CC24DD241BC0F70146
:100770004781508581E090E0018402C0880F991F75
:100780000A94E2F7FA012081282B2083F701908652
:10079000878249814187E7CF13968E819F81039697
:1007A0009F838E83FD018491082F11271296FD01EE
:1007B00064911297EE81FF818491482F55275D83C4
:1007C0004C833296FF83EE8384913297FF83EE83CE
:1007D00041E050E0FA0102C0EE0FFF1F8A95E2F7F8
:1007E000CF018095EC81FD81208128232083FA812F
:1007F000F23010F4C31660F402C0440F551F6A951E
:10080000E2F7942F9095F8018081892380832DC091
:100810008A2D99270C2C02C0959587950A94E2F7AA
:100820007727F801208180FF16C0CA0102C0880F17
:10083000991F6A95E2F7282B2083FA81FF5FFA83DC
:100840000C2C02C0440F551F0A94E2F7842F8095A8
:10085000A8223C2D0AC002C0440F551F6A95E2F73A
:10086000842F80952823F80120830894C11CD11C73
:10087000F7E0CF16D10409F08FCF4B8145FD0DC0B5
:1008800081E090E0098002C0880F991F0A94E2F786
:100890008095F401208128232083F701A082AA20DB
:1008A00041F4B394F5E0BF1619F437E0BB2401C05E
:1008B00037E0F7013183F301B18249E250E0640E81
:1008C000751E8FE090E0280E391EE40EF51EE5E15E
:1008D000F0E04E0E5F1EFEE12F16310409F0FBCE54
:1008E00027960FB6F894DEBF0FBECDBFDF91CF9134
:1008F0001F910F91FF90EF90DF90CF90BF90AF903E
:100900009F908F907F906F905F904F903F902F902F
:100910000895E82FFF27662379F089E290E09F0190
:10092000289FF001299FF00D389FF00D1124E65FFC
:10093000FE4F828180620EC089E290E09F01289F75
:10094000F001299FF00D389FF00D1124E65FFE4F56
:1009500082818F7D82830895992729E230E0829FEA
:10096000F001839FF00D929FF00D1124E65FFE4F82
:1009700060A30895DC01FC012389E20FF11D83814E
:100980008F7099278330910544F007971CF482E01B
:1009900090E005C080E090E002C081E090E0820F2E
:1009A000FD01838BA80FB11DFD0183819927089557
:1009B0001F93CF93DF93162F99E2899FE0011124B3
:1009C000C65FDE4F1B8A8B8105C0811751F0CE01B7
:1009D0000E94BA04282F33272F7030702F30310532
:1009E000A1F78B89FE01E80FF11D13838F5F8B8BBD
:1009F0002F30310521F4C80FD11D8FE08B83DF919B
:100A0000CF911F910895FC018389680F712D711D8D
:100A10003396E60FF71F80818F3019F4408381836E
:100A2000089540830895FC01A0E0772781E090E0DD
:100A3000062E02C0880F991F0A94E2F7B82FB15012
:100A400047E050E0461B570B218D8B2F82239927BF
:100A5000042E02C0880F991F0A94E2F73327062E4E
:100A600002C0359527950A94E2F7822B818FAF5FFC
:100A70003196A53049F70895DC010CC0FD01218DA8
:100A800090E0828D818F9F5F31969430D1F7FD0188
:100A9000258F6150662391F70895FC0120E081E0E5
:100AA00090E002C0880F991F4A95E2F7019702C0B3
:100AB000880F991F6A95E2F7982F9095818D892369
:100AC000818F2F5F31962530C9F7089577274150E0
:100AD000FC01E40FF11DE60FF71F118E4423B9F757
:100AE00008951F93CF93DF9399E2899FE00111242A
:100AF000C65FDE4FE8818A8184FF0BC08C89898FB5
:100B00008D898A8F8E898B8F8F898C8F888D8D8F21
:100B100011C085E0E89FC001112482529F4FDE0181
:100B200020E0FC0101963491FD01318F2F5F119679
:100B30002530B9F7198288E08F8F1B8A8B81D3C04B
:100B40008530910574F4833091050CF052C08130EA
:100B50009105D1F1823091050CF03FC0892B49F00D
:100B6000BFC08530910509F473C0069709F0B8C07D
:100B700093C0FE0140E0818D99279C01257530705E
:100B8000220F331F8A7A907095958795282B3327EB
:100B9000C90183739070880F991F880F991F2C7C4F
:100BA00030703595279535952795822B282F2295DE
:100BB0002F708295807F822B8695818F4F5F319633
:100BC000453009F48DC0D7CF298D8D8D898F9A8DB1
:100BD0008C8D8A8F9C8F2D8F83C0FE0190E0818D3C
:100BE00080958F77818F9F5F3196953009F478C01B
:100BF000F6CF8B89FE01E80FF11D2481822F992702
:100C0000807F90708032910591F08132910524F4BB
:100C1000409709F065C008C08033910579F08034B1
:100C2000910509F05DC00DC02F70622F03C02F70B9
:100C300067E0621BCE010E94130552C02F70622F25
:100C400003C02F7065E0621BCE010E943C0548C0C6
:100C50008B89FE01E80FF11D1481812F9927807F78
:100C600090708031910519F08097D1F509C01F70FF
:100C7000612FCE010E94130567E0611B412F08C060
:100C80001F7067E0611BCE010E941305412F60E0D9
:100C9000CE010E944D0524C08B89FE01E80FF11D95
:100CA0001481812F9927807F90708033910521F0E6
:100CB00080349105A9F409C01F70612FCE010E94F4
:100CC0003C0565E0611B412F08C01F7065E0611B9A
:100CD000CE010E943C05412F60E0CE010E946605D6
:100CE000CE010E94BA0499278F7090708F309105C1
:100CF00009F026CFDF91CF911F910895482F6623E9
:100D000019F0613009F510C0282F332789E290E0EF
:100D1000289FF001299FF00D389FF00D1124E65F08
:100D2000FE4F82818F7E0FC0282F332789E290E00B
:100D3000289FF001299FF00D389FF00D1124E65FE8
:100D4000FE4F828180618283842F0E947105089505
:100D5000482F552729E230E0429FF001439FF00DD4
:100D6000529FF00D1124E65FFE4F60830E947105D3
:100D70000895482F552729E230E0429FF001439F14
:100D8000F00D529FF00D1124E65FFE4F138A9FE095
:100D900093830E9471050895582F282F332789E2E5
:100DA00090E0289FD001299FB00D389FB00D1124ED
:100DB000FD01E60FF11DE65FFE4F448BA65FBE4FBF
:100DC000FD01828184FF03C0852F0E947105089573
:100DD000782FE82FFF27332755276130C9F489E2A0
:100DE00090E0DF01A89FF001A99FF00DB89FF00DE2
:100DF0001124E20FF31FE65FFE4F81E090E002C096
:100E0000880F991F4A95E2F72489282B248B19C053
:100E100089E290E0DF01A89FF001A99FF00DB89F43
:100E2000F00D1124E20FF31FE65FFE4F81E090E02A
:100E300002C0880F991F4A95E2F780952489822382
:100E4000848B272F332789E290E0289FF001299F88
:100E5000F00D389FF00D1124E65FFE4F828184FF74
:100E600003C0872F0E9471050895CF93DF93982FB9
:100E700085E0689F9001112422523F4F89E2989F9C
:100E8000D0011124A65FBE4F80E0F9012F5F3F4FD4
:100E9000E491ED01EC8B8F5F11968530B1F7892FCE
:100EA0000E947105DF91CF910895282F683501F5D3
:100EB00080916E008E7F80936E00E0917101F091C1
:100EC000720131972081A0917301B091740181E08A
:100ED00090E00C9002C0880F991F0A94E2F7809569
:100EE000822380838FEF8093320180935B0108958A
:100EF0006530D8F42295207F262B20933201862F4F
:100F000099279C01220F331F280F391FF901E45A3A
:100F1000FF4FE4918E2F9927909372018093710176
:100F2000225A3F4FF90184911FC0862F855085308A
:100F300000F52295207F262B20935B01862F992791
:100F400005979C01220F331F280F391FF901E5591E
:100F5000FF4FE4918E2F9927909372018093710136
:100F600023593F4FF90184919927909374018093FD
:100F70007301E0917101F091720131972081A0918C
:100F80007301B091740181E090E00C9002C0880F71
:100F9000991F0A94E2F7282B208380916E008160CC
:100FA00080936E0008951F93CF93DF93162F99E2DD
:100FB000899FE0011124C65FDE4F1B8A8B8126C00A
:100FC000811709F599278330910544F007971CF4A0
:100FD00062E070E005C060E070E002C061E070E0D7
:100FE0002B893327CE01039640E150E0421B530B7F
:100FF000461B570B620F731F680F791F820F931FD9
:101000000E94670B06C0CE010E94BA048F708F3019
:10101000B9F6DF91CF911F9108950F931F93CF934E
:10102000DF93082F142F442391F46C3659F06D365A
:1010300018F46436C9F504C0623721F06537A1F5AC
:1010400063E001C064E0802F0E94D3072DC089E2D5
:10105000089FE0011124C65FDE4F6C36A9F06D36A3
:1010600018F4643609F50AC06237A1F06537E1F477
:1010700063E0802F0E94D804106111C063E0802FCC
:101080000E94D80410620BC064E0802F0E94D80434
:10109000106305C064E0802F0E94D8041064412FC3
:1010A00060E0CE010E940305802F0E947105DF9150
:1010B000CF911F910F9108950F931F93CF93DF93BB
:1010C000082F142F442391F46C3659F06D3618F420
:1010D0006436C9F504C0623721F06537A1F565E0D3
:1010E00001C066E0802F0E94D3072DC089E2089FCF
:1010F000E0011124C65FDE4F6C36A9F06D3618F49E
:10110000643609F50AC06237A1F06537E1F465E09D
:10111000802F0E94D804106111C065E0802F0E94CA
:10112000D80410620BC066E0802F0E94D8041063C0
:1011300005C066E0802F0E94D8041064412F60E053
:10114000CE010E940305802F0E947105DF91CF918F
:101150001F910F9108951F93182F662319F0613086
:1011600041F404C061E00E94D30703C061E00E9423
:10117000D804812F0E9471051F9108951F93182F85
:10118000662319F0613041F404C060E00E94D30787
:1011900003C060E00E94D804812F0E9471051F9156
:1011A00008951F93182F662319F0613041F404C08D
:1011B00062E00E94D30703C062E00E94D804812F3E
:1011C0000E9471051F91089582E5EAE0F1E0119215
:1011D0008A95E9F78FE080930D018093360185B7FA
:1011E000846085BF83EC8EB94FEF41B984B1806FC5
:1011F00084B947B98FE78AB98CE08DB940BB9FE1CC
:1012000093BB85B1806C85B998B989EF8BB98EB1E4
:10121000837F8EB988E184BB11BA84E080930B018F
:10122000809334018AE790E090932C0180932B0106
:101230009C012B5E3F4F30935501209354019093B6
:101240002E0180932D01309357012093560187E0A2
:1012500080932901809352014093320140935B01B6
:1012600008951092020110926001109203010895F6
:1012700020E030E0F901E253FF4FE4918E1711F4C2
:10128000822F06C02F5F3F4F2031310599F780E054
:101290008295807F20E030E0F901E253FF4FE49136
:1012A0006E1711F4822B05C02F5F3F4F203131059F
:1012B00099F799270895982F50910201552309F421
:1012C00017C180910301E82FFF27E45AFE4F908356
:1012D0008F5F809303018091600181508093600152
:1012E000882309F080C190915C01903309F081E07E
:1012F000252F33272F7D30702C34310509F47FC022
:101300002D343105E4F42334310509F444C0243488
:10131000310544F42134310579F12234310509F0E5
:10132000BFC032C02734310509F443C02934310528
:1013300009F45EC02634310509F0B2C033C022354D
:10134000310509F483C0233531054CF42D343105C2
:1013500009F465C02035310509F0A2C067C0243505
:10136000310509F483C0243531050CF477C02A35E2
:10137000310509F095C087C080E0513609F081E061
:10138000692F0E94A806AFC060E0523609F461E000
:101390000E948904A8C060E0533609F461E00E940D
:1013A0007E06A1C060E0563609F061E00E94BE08EA
:1013B0009AC0692F80E00E943809880F880F880F33
:1013C0002BB1982F97689223982B9BB98CB1837C73
:1013D000E82FE295EF70FF27992783709070E82B34
:1013E000F92BE253FF4FE4918E2F0E944B0B7BC0F1
:1013F00060E0593609F461E00E94D10874C0609140
:101400005D01892F0E943809682F90E080910201C8
:101410008C3609F091E0892F0E94AC0464C060E032
:101420005D3609F461E00E94AB085DC060915D012A
:10143000892F0E943809682F90E08091020180373F
:1014400009F091E0892F0E9435074DC040915E015F
:10145000405360915D010E940D0845C040915E01BE
:10146000405360915D010E945C083DC020915E0187
:10147000205340915D01405360E0543709F461E02E
:101480000E94E80630C05A3519F488E568E505C0C1
:1014900060915D016053892F80530E94550723C0DE
:1014A000513219F40E94B9061EC0852F8053853031
:1014B00058F460915D01892F0E9438096091020102
:1014C0006053482F80E00DC05553553060F4609153
:1014D0005D01892F0E943809609102016553482FF0
:1014E00081E00E94CC06109202011092030108953F
:1014F0001092600110920301823509F44AC08335CD
:1015000030F58434B0F4813408F043C08F3209F4EC
:101510005AC0803350F48A3209F449C08B3209F43E
:1015200057C0813209F05DC034C08A3308F059C019
:1015300038C0893471F18A3410F4865417C08D3460
:1015400041F1803571F18C3409F04BC02AC08936E5
:1015500001F18A3670F4843640F48136D0F4843553
:10156000E1F08A3509F03DC01CC086568230C8F5CE
:1015700010C08037B1F0813728F48C3691F08D3669
:1015800081F507C0823768F1853738F08A3749F529
:1015900008C09093020181E007C09093020183E0AC
:1015A00003C09093020182E080936001089588E176
:1015B00090E029E00FB6F894A895809360000FBEE4
:1015C0002093600008950E94440310920201089540
:1015D00090E080910001882309F491E0909300014C
:1015E00008951092020108951F920F920FB60F9264
:1015F00011248F939F93EF93FF93809104019EB5E5
:10160000E82FFF27E759FE4F90838F5F8770809305
:10161000040181E080930801909107018091060107
:10162000891759F0E92FFF27EF59FE4F80818EBDB2
:101630009F5F97709093070101C01EBCFF91EF91CF
:101640009F918F910F900FBE0F901F901895CF9381
:10165000DF93CDB7DEB721970FB6F894DEBF0FBE8C
:10166000CDBF239AE4E6F0E080818B7F80831EBCAF
:101670008EB589838EB589838DB589838EB589832F
:1016800080EC8CBD21960FB6F894DEBF0FBECDBFA7
:10169000DF91CF910895F89490910601E1E6F1E091
:1016A000E90FF11D80839F5F9770909306017894F6
:1016B00008951F920F920FB60F9211240F900FBE34
:1016C0000F901F90189580E090E008951EC0681755
:1016D000790778F4E62FF72FA82FB92FE40FF51F1D
:1016E000A40FB51F02C002900E9241505040D8F78F
:1016F000089500C0E62FF72FA82FB92F02C0019040
:0C1700000D9241505040D8F70895FFCFE3
:00000001FF
