:100000000C94B4000C94D1000C94D1000C94D10049
:100010000C94D1000C94D1000C94D1000C94D1001C
:100020000C94D1000C94D1000C94D1000C94D1000C
:100030000C94D1000C94D1000C94D1000C94D100FC
:100040000C94D1000C94D1000C94D1000C94D100EC
:100050000C94D1000C94D1000C94D1004330433166
:100060000063306331002A0061614120693100671B
:1000700030303163393163313232383232323431F7
:1000800037343133343134343935343936343161FD
:100090002D412D6330633100303038393038313103
:1000A000343831343232323732323332323632321D
:1000B00034326135326131303838303832313437AA
:1000C00031343331343631343431633531633230A5
:1000D00038333038343038353038363038373038D7
:1000E00031303838303832313437313433313436D6
:1000F0003134343163353163313134383134323273
:100100003237323233323236323234336535336558
:10011000303163393163313232383232323431374F
:1001200034313334313434393534393634310033C1
:1001300034393534310032343934343100343439DF
:1001400032343100353439333431003634393434D3
:1001500031003734393534310035343937343100F2
:10016000343439363431000011241FBECFEFD4E0CF
:10017000DEBFCDBF11E0A0E0B1E0E8EBF3E002C0EC
:1001800005900D92A030B107D9F711E0A0E0B1E0E1
:1001900001C01D92A030B107E1F70E947D010C94CF
:1001A000DA010C940000282F4198429830E027FF94
:1001B00002C0439A01C0439885ED982F9A95F1F7B4
:1001C000459A8A95F1F745983F5F383011F0220F34
:1001D000EECF419A429A0895CF93DF93FC01849128
:1001E000EF0104C00E94D300FE0184912196882370
:1001F000C9F7DF91CF91089588E990E00E94EC0063
:1002000008958FE291E00E94EC0028EE33E088EC44
:1002100090E00197F1F721503040C9F786E391E073
:100220000E94EC0020E335E788EC90E00197F1F7BD
:1002300021503040C9F78DE391E00E94EC0020EDA1
:1002400037E088EC90E00197F1F721503040C9F792
:1002500084E491E00E94EC0020ED37E088EC90E02F
:100260000197F1F721503040C9F708958BE491E0F0
:100270000E94EC0028EE33E088EC90E00197F1F763
:1002800021503040C9F782E591E00E94EC0020E364
:1002900035E788EC90E00197F1F721503040C9F73D
:1002A00089E591E00E94EC0020ED37E088EC90E0D9
:1002B0000197F1F721503040C9F780E691E00E94A4
:1002C000EC0020ED37E088EC90E00197F1F7215049
:1002D0003040C9F708958CE590E00E94EC0024EFCF
:1002E00031E088EC90E00197F1F721503040C9F7F8
:1002F00081E690E00E94EC000895CFEFD4E0DEBFED
:10030000CDBF80E29EE40197F1F78EE687B986E4DF
:1003100088B9469A28EE33E088EC90E00197F1F72F
:1003200021503040C9F7469828EE33E088EC90E041
:100330000197F1F721503040C9F7469A28EE33E093
:1003400088EC90E00197F1F721503040C9F786E63C
:1003500090E00E94EC0028EE33E088EC90E00197FA
:10036000F1F721503040C9F78FE690E00E94EC0091
:1003700020E533EC88EC90E00197F1F72150304014
:10038000C9F70E94360120E533EC88EC90E0019734
:10039000F1F721503040C9F70E94010120E533EC0C
:1003A00088EC90E00197F1F721503040C9F70E94A6
:0803B000FC00DECF00C0FFCF0E
:00000001FF
