:100000000C94B4000C94C6000C94C6000C94C6006A
:100010000C94C6000C94C6000C94C6000C94C60048
:100020000C94C6000C94C6000C94C6000C94C60038
:100030000C94C6000C94C6000C94C6000C94C60028
:100040000C94C6000C94C6000C94C6000C94C60018
:100050000C94C6000C94C6000C94C6004330433187
:100060000063306331002A0061614120693100671B
:1000700030303163393163313232383232323431F7
:1000800037343133343134343935343936343161FD
:100090002D412D6330633100303038393038313103
:1000A000343831343232323732323332323632321D
:1000B00034326135326131303838303832313437AA
:1000C00031343331343631343431633531633230A5
:1000D00038333038343038353038363038373038D7
:1000E00031303838303832313437313433313436D6
:1000F0003134343163353163313134383134323273
:100100003237323233323236323234336535336558
:10011000303163393163313232383232323431374F
:1001200034313334313434393534393634310033C1
:1001300034393534310032343934343100343439DF
:1001400032343100353439333431003634393434D3
:1001500031003734393534310035343937343100F2
:10016000343439363431000011241FBECFEFD4E0CF
:10017000DEBFCDBF11E0A0E0B1E001C01D92A5310E
:10018000B107E1F70E94D2010C941E020C9400000A
:100190000E9405020895CF93DF93C82FD92FFE0147
:1001A000849104C00E940502FE0184912196882357
:1001B000C9F7DF91CF9108958CE590E00E94CB00C4
:1001C0008FE798E3A1E081509040A040E1F700C0A4
:1001D000000081E690E00E94CB00089588E990E05D
:1001E0000E94CB0008958FE291E00E94CB008FEF38
:1001F00090E7A2E081509040A040E1F700C00000ED
:1002000086E391E00E94CB008FEF9DE3A9E481504B
:100210009040A040E1F700C000008DE391E00E9413
:10022000CB008FEF91EEA4E081509040A040E1F729
:1002300000C0000084E491E00E94CB008FEF91EEBB
:10024000A4E081509040A040E1F700C00000089574
:100250008BE491E00E94CB008FEF90E7A2E0815009
:100260009040A040E1F700C0000082E591E00E94CC
:10027000CB008FEF9DE3A9E481509040A040E1F7CF
:1002800000C0000089E591E00E94CB008FEF91EE65
:10029000A4E081509040A040E1F700C0000080E65B
:1002A00091E00E94CB008FEF91EEA4E0815090404E
:1002B000A040E1F700C0000008958FEF90E7A2E0B2
:1002C00081509040A040E1F700C000008FEF90E720
:1002D000A2E081509040A040E1F700C000008FEF05
:1002E00090E7A2E081509040A040E1F700C00000FC
:1002F0008FEF90E7A2E081509040A040E1F700C06E
:1003000000008FEF90E7A2E081509040A040E1F71D
:1003100000C000008FEF90E7A2E081509040A04025
:10032000E1F700C000008FEF90E7A2E0815090401D
:10033000A040E1F700C000008FEF90E7A2E08150FD
:100340009040A040E1F700C000008FEF90E7A2E0EE
:1003500081509040A040E1F700C000008FEF90E78F
:10036000A2E081509040A040E1F700C00000089555
:1003700087B1876087B984B1866084B9429A409A10
:100380000E945D0140980E945D01419A0E945D01BA
:100390004198299A0E945D0129982A9A0E945D013C
:1003A0002A98EDCFCF9387E087B988B90E94EF01F3
:1003B0000E945D01C8E781E60E9405028FEC97E08C
:1003C0000197F1F700C000008C2F0E9405028FEC0E
:1003D00097E00197F1F700C00000CF5FECCF84B148
:1003E000866084B9289A81E58CBD0895F89490912F
:1003F0000201E5E0F1E0E90FF11D8083892F8F5FB5
:1004000087708093020178940895DF93CF930F92C1
:10041000CDB7DEB740988EBD0DB407FEFDCF9EB5BB
:100420009983409A41988EBD0DB407FEFDCF8EB5DD
:100430008983419A0F90CF91DF910895F8940C949D
:060440002102F894FFCF39
:00000001FF
