:100000000EC020C01FC01EC01DC028C01BC01AC00B
:1000100019C018C017C016C015C014C013C01124D1
:100020001FBECFE5D1E0DEBFCDBF10E0A0E6B0E05F
:10003000E0E6F2E002C005900D92A236B107D9F7D2
:100040004ED0F8C0DDCF262F90E060EF70E0F4D006
:10005000FC013197F1F72150D9F708951F920F92C3
:100060000FB60F9211248F9380916000882329F09E
:10007000809160008150809360008F910F900FBE3F
:100080000F901F901895BB9AC39A80EC9DE5FC01D8
:100090003197F1F7C398FC013197F1F7C39AFC014E
:1000A0003197F1F7C398FC013197F1F7C39AFC013E
:1000B0003197F1F7C398FC013197F1F7C39AFC012E
:1000C0003197F1F7C398FC013197F1F7C39AFC011E
:1000D0003197F1F7C3980197F1F7BB980895DF9333
:1000E000CF930F92CDB7DEB720EC3DE540EE5EE258
:1000F00060EF71E0B39BFECFC9010197F1F7BB9AA6
:10010000C39AC9010197F1F7C398C9010197F1F7A3
:10011000C39AC9010197F1F7C398C9010197F1F793
:10012000C39AC9010197F1F7C398C9010197F1F783
:10013000C39AC9010197F1F7C398C9010197F1F773
:10014000C39AC9010197F1F7C398C9010197F1F763
:10015000BB98EEE1C9010197F1F7E150D9F712BE62
:1001600083B7856083BF89B7826089BF789419821D
:100170008981882309F0BECF6093600087B38861CE
:1001800087BBC39AC9010197F1F7C9010197F1F73C
:10019000C9010197F1F7C9010197F1F7C901019769
:1001A000F1F7C9010197F1F7C9010197F1F7C90109
:1001B0000197F1F7C9010197F1F7C9010197F1F72B
:1001C000C9010197F1F7C9010197F1F7C901019739
:1001D000F1F7C398B29BFECFB299FECFC901019748
:1001E000F1F7C49ACA010197F1F7C498B29BFECF08
:1001F000B299FECFC9010197F1F7C39AB29BFECF26
:10020000C39887B3877E87BB80916000882309F4F9
:10021000AFCFB39BF9CFBB9AE5E0C39AC901019771
:10022000F1F7C398C9010197F1F7E150B1F7BB9815
:1002300079839ECFF89412C05527002480FF02C016
:10024000060E571F660F771F6115710521F09695F1
:100250008795009799F7952F802D0895F894FFCFF3
:00000001FF
