:100000000C942C010C9449010C9449010C94490165
:100010000C9449010C9449010C9449010C94490138
:100020000C9449010C9449010C9449010C94490128
:100030000C9449010C9449010C9449010C94490118
:100040000C9449010C9449010C9449010C94490108
:100050000C9449010C9449010C9449016C6F6C207B
:100060006D703320667969206469676772737320E5
:1000700068746D6C77696B6946415120626C6F677B
:100080006A706720796D6D766B622F737774662066
:1000900040796F7570776E6462726220696D686F07
:1000A0004F4D4720726F666C6C6D616F6E6F6F6243
:1000B0007072306E68746820687830726774672078
:1000C0007474796C494952436F726C796274772009
:1000D0006C387220667477206677697768747470FC
:1000E000343034206A2F6B206E7366777274666DBD
:1000F000203A2920203B29205E2D5E204641494C94
:1001000020382920203A2F20203A2820203A4F203A
:10011000203A5020203C3320235F23207777772E0E
:100120002E636F6D2E6E65742E6F72676C756C7AB0
:1001300000733075317331753173307532733175C9
:100140003273307533733175337330753473317581
:100150003473307535733175357330753673317569
:1001600036612041202130213100733064317331F8
:100170006431733064327331643273306433733199
:100180006433733064347331643473306435733181
:100190006435733064367331643661204120213018
:1001A00021310073306C3173316C3173306C3273C8
:1001B000316C3273306C3373316C3373306C347335
:1001C000316C346120412021302131007330723193
:1001D0007331723173307232733172327330723301
:1001E0007331723373307234733172346120412051
:1001F00021302131007330753173316431733075C2
:1002000032733164327330753373316433733075E4
:1002100034733164347330753573316435733075CC
:100220003673316436612041202130213100733032
:100230006C317331723173306C32733172327330AE
:100240006C337331723373306C34733172346120B8
:10025000412021302131000011241FBECFEFD4E016
:10026000DEBFCDBF11E0A0E0B1E0E2ECF5E002C0FE
:1002700005900D92A030B107D9F711E0A0E0B1E0F0
:1002800001C01D92A030B107E1F70E94A8010C94B3
:1002900077020C940000282F4398459830E067FFC0
:1002A00002C0449A01C0449827FF02C0429A01C08C
:1002B000429885ED982F9A95F1F7419A8A95F1F732
:1002C00041983F5F383019F0220F660FE8CF439A0C
:1002D000459A0895FC0184918823F1F70895FB0164
:1002E00066E070E00E94970282309105E9F0833069
:1002F00091052CF4009771F0019749F40EC08430F9
:100300009105C1F08430910594F00597D1F080E01B
:1003100090E0089581E391E002C08AE691E0918344
:10032000808389E390E0089583EA91E005C08CEC36
:1003300091E002C08EE292E09183808389E290E0B6
:10034000089585EF91E09183808389E390E008959B
:10035000CDEFD4E0DEBFCDBF80E29EE40197F1F7A0
:100360008EE387B988E288B96AE28AE20E944B018B
:1003700028EE33E088EC90E00197F1F7215030400F
:10038000C9F76CE48CE40E944B0160E380E30E94B7
:100390004B0161E381E30E944B016CE68CE60E9415
:1003A0004B0160E380E30E944B0161E381E30E9423
:1003B0004B01EE24FF2487014E010894811C911CFF
:1003C000C801B7012DE036E649E150E00E9478020D
:1003D0007B018C018FE593EFAEE6BCE3E80EF91EDE
:1003E0000A1F1B1FC801B70141E1969587957795B4
:1003F00067954A95D1F725E330E040E050E00E9450
:10040000AA0232E0660F771F881F991F3A95D1F72D
:10041000FB01E45AFF4F9F012F5F3F4FB490C9018A
:100420000196F901A4909C012F5F3F4FFC01D490ED
:100430002F5F3F4F3A83298321503040F901C49008
:1004400061E681E60E944B016D2D8B2D0E944B01D0
:1004500061E481E40E944B016C2D8A2D0E944B01C6
:1004600020E335E788EC90E00197F1F72150304028
:10047000C9F7C801B7012DE036E649E150E00E9416
:1004800078027B018C018FE593EFAEE6BCE3E80ECA
:10049000F91E0A1F1B1FD801C70121E1B695A795B8
:1004A000979587952A95D1F79F77B4010E946F01A0
:1004B000C82EDD2410C0E981FA813196FA83E983E0
:1004C0003197E4916E2F8E2F0E944B0180E29EE4C3
:1004D0000197F1F7D394DC1471F728E833E188EC45
:1004E00090E00197F1F721503040C9F769CF68C01B
:1004F000629FD001739FF001829FE00DF11D649F08
:10050000E00DF11D929FF00D839FF00D749FF00D93
:10051000659FF00D9927729FB00DE11DF91F639F34
:10052000B00DE11DF91FBD01CF011124089597FB06
:10053000092E07260AD077FD04D02ED006D0002041
:100540001AF4709561957F4F0895F6F7909581950F
:100550009F4F0895A1E21A2EAA1BBB1BFD010DC0DF
:10056000AA1FBB1FEE1FFF1FA217B307E407F50763
:1005700020F0A21BB30BE40BF50B661F771F881F3F
:10058000991F1A9469F760957095809590959B01D5
:10059000AC01BD01CF010895AA1BBB1B51E107C0EF
:1005A000AA1FBB1FA617B70710F0A61BB70B881F03
:1005B000991F5A95A9F780959095BC01CD01089592
:0205C000FFCF6B
:00000001FF
