:100000000C9426010C9438010C9438010C9438019E
:100010000C9438010C9438010C9438010C9438017C
:100020000C9438010C9438010C9438010C9438016C
:100030000C9438010C9438010C9438010C9438015C
:100040000C9438010C9438010C9438010C9438014C
:100050000C9438010C9438010C9438016C6F6C20AE
:100060006D703320667969206469676772737320E5
:1000700068746D6C77696B6946415120626C6F677B
:100080006A706720796D6D766B622F737774662066
:1000900040796F7570776E6462726220696D686F07
:1000A0004F4D4720726F666C6C6D616F6E6F6F6243
:1000B00068783072677467207474796C4949524368
:1000C000627477206C38722066747720667769775F
:1000D00068747470343034206A2F6B206E736677C6
:1000E0007274666D203A2920203B29205E2D5E2007
:1000F0004641494C20382920203A2F20203A2820F8
:10010000203A4F20203A5020203C3320235F2320E8
:100110007777772E2E636F6D2E6E65742E6F7267F4
:100120006C756C7A0073307531733175317330755D
:100130003273317532733075337331753373307593
:10014000347331753473307535733175357330757B
:1001500036733175366120412021302131007330F2
:1001600064317331643173306432733164327330AB
:100170006433733164337330643473316434733093
:10018000643573316435733064367331643661209D
:100190004120213021310073306C3173316C317367
:1001A000306C3273316C3273306C3373316C337347
:1001B000306C3473316C34612041202130213100A6
:1001C0007330723173317231733072327331723213
:1001D00073307233733172337330723473317234FB
:1001E0006120412021302131007330753173316439
:1001F00031733075327331643273307533733164F7
:1002000033733075347331643473307535733164DE
:1002100035733075367331643661204120213021C9
:10022000310073306C317331723173306C32733131
:10023000723273306C337331723373306C347331A8
:1002400072346120412021302131000011241FBE71
:10025000CFEFD4E0DEBFCDBF11E0A0E0B1E001C040
:100260001D92A531B107E1F70E9481010C949D0216
:100270000C940000DF93CF930F92CDB7DEB790E0E0
:1002800069830E946F026981862F90E00E94860236
:100290000F90CF91DF910895FB0166E070E00E941E
:1002A000BF0282309105C9F08330910534F4009784
:1002B00071F08130910519F50DC08430910599F0E8
:1002C000843091056CF085309105C9F412C085E247
:1002D00091E011C08EE591E00EC087E991E005C084
:1002E00080EC91E002C082E292E09183808389E217
:1002F000089589EE91E09183808389E3089580E0F9
:1003000008954F925F926F927F928F929F92AF92D9
:10031000BF92CF92DF92EF92FF920F931F93DF93E2
:10032000CF9300D0CDB7DEB70E9459028AE26AE2CD
:100330000E943A018FEF90E7A2E081509040A040E8
:10034000E1F700C000008CE46CE40E943A0180E315
:1003500060E30E943A0181E361E30E943A018CE686
:100360006CE60E943A0180E360E30E943A0181E377
:1003700061E30E943A01EE24FF24870152E3452EF7
:10038000512C612C712C6E010894C11CD11CC80128
:10039000B7012DE036E649E150E00E94A0027B0162
:1003A0008C018FE593EFAEE6BCE3E80EF91E0A1F61
:1003B0001B1FC801B70141E1969587957795679511
:1003C0004A95D1F7A30192010E94D202FB01EE0FE0
:1003D000FF1FEE0FFF1FE45AFF4F9F012F5F3F4F9C
:1003E000A490A9014F5F5F4FF901B4909A012F5F6C
:1003F0003F4FFA019490D9011196BA83A983F9016C
:10040000849081E661E60E943A018A2D692D0E945E
:100410003A0181E461E40E943A018B2D682D0E942B
:100420003A018FEF9DE3A9E481509040A040E1F7AD
:1004300000C00000C801B7012DE036E649E150E0F8
:100440000E94A0027B018C018FE593EFAEE6BCE336
:10045000E80EF91E0A1F1B1FD801C70121E1B6953E
:10046000A795979587952A95D1F7B6010E944C01DB
:10047000A82EBB2412C0E981FA819F012F5F3F4F54
:100480003A8329836491862F0E943A01AFE1BEE44A
:100490001197F1F700C00000B394BA1460F38FEF26
:1004A00094E3ACE081509040A040E1F700C0000030
:1004B0006ECF84B1866084B9289A81E58CBD089599
:1004C000F89490910201E5E0F1E0E90FF11D8083DD
:1004D000892F8F5F87708093020178940895DF934E
:1004E000CF930F92CDB7DEB740988EBD8FEC97E0DB
:1004F0000197F1F700C000000DB407FEFDCF8EB5E7
:100500008983409A0F90CF91DF910895DF93CF9325
:100510000F92CDB7DEB741988EBD8FEC97E0019773
:10052000F1F700C000000DB407FEFDCF8EB5898342
:10053000419A0F90CF91DF910895F8940C9408039D
:10054000629FD001739FF001829FE00DF11D649FB7
:10055000E00DF11D929FF00D839FF00D749FF00D43
:10056000659FF00D9927729FB00DE11DF91F639FE4
:10057000B00DE11DF91FBD01CF011124089597FBB6
:10058000092E07260AD077FD04D02ED006D00020F1
:100590001AF4709561957F4F0895F6F790958195BF
:1005A0009F4F0895A1E21A2EAA1BBB1BFD010DC08F
:1005B000AA1FBB1FEE1FFF1FA217B307E407F50713
:1005C00020F0A21BB30BE40BF50B661F771F881FEF
:1005D000991F1A9469F760957095809590959B0185
:1005E000AC01BD01CF010895AA1BBB1B51E107C09F
:1005F000AA1FBB1FA617B70710F0A61BB70B881FB3
:10060000991F5A95A9F780959095BC01CD01089541
:04061000F894FFCF8C
:00000001FF
