:103800000C942E1C0C94491C0C94491C0C94871C81
:103810000C94491C0C94491C0C94491C0C94491C94
:103820000C94491C0C94491C0C94491C0C94491C84
:103830000C94491C0C94491C0C94491C0C94491C74
:103840000C94491C0C94491C0C94491C0C94491C64
:103850000C94491C0C94491C0C94491C11241FBE47
:10386000CFEFD4E0DEBFCDBF11E0A0E0B1E0ECE7E8
:10387000FEE302C005900D92A030B107D9F711E028
:10388000A0E0B1E001C01D92A338B107E1F70C94AC
:10389000CF1D0C94001C20E030E00FB607FE0FC0D7
:1038A0008091C00087FD0FC02F5F3F4F8091C00007
:1038B00087FD09C087E220313807B4F304C0809146
:1038C000C0008823E4F78091C6009927089520E07E
:1038D00030E08093C6000FB607FE0FC08091C00095
:1038E00086FD0FC02F5F3F4F8091C00086FD09C04D
:1038F00087E220313807B4F304C08091C00086FF0E
:10390000FCCF8091C00080648093C00008951F9216
:103910000F920FB60F9211240F900FBE0F901F90B1
:103920001895DF92EF92FF920F931F93CF93DF933F
:103930008C01D62E20E030E0E901C050DF4F790144
:103940000894E11CF11C2017310718F40E944B1C4D
:1039500001C08FEF88839701203831056CF320E098
:1039600030E0C0918001D091810180918201853742
:1039700009F065C086E4D816D1F560E0E62E61E076
:10398000F62EF7018191282F332781917F01992706
:10399000982F88276091800170918101822B932B51
:1039A0000E940D1F80918001909181010296909359
:1039B0008101809380010250104019F7C07865E0C2
:1039C000CE010E94FE1E61E1CE010E94FE1E80918A
:1039D0008001909181019C0120788217930761F109
:1039E00020583F4F309381012093800125C0F5E49A
:1039F000DF1611F5D695C795D0938101C09380014C
:103A0000F901E150FF4F8091800181BD80918001DB
:103A100090918101292F332722BD01969093810136
:103A2000809380013196808180BDFA9AF99AF99944
:103A3000FECF0150104039F78DE090E001C0C90180
:103A4000DF91CF911F910F91FF90EF90DF9008953C
:103A50000F931F93CF93DF93EC016534B1F4809102
:103A6000800181BD8091800190918101292F3327B0
:103A700022BD01969093810180938001F89A80B5D0
:103A80000E94671C219759F719C060E0809180015E
:103A9000909181010E94201F8C010E94671C812F40
:103AA00099270E94671C8091800190918101029664
:103AB0009093810180938001229739F7DF91CF9114
:103AC0001F910F91089501972FEF8F3F920729F0D3
:103AD0002CE7295127FFFDCFF6CF0895CF93C0E003
:103AE00080E88093610083E080936100C093700060
:103AF00088E08093B60088EC8093B300C0936E009A
:103B000081E0809381008093B0008091B600282FDF
:103B10003327217030708091B6009927847090709F
:103B2000282B392B232B89F788EE93E00E94631D05
:103B30004FEF51E0F89446BB47BB109285001092BE
:103B400084001092B200B99BFECF1092810078944D
:103B5000B09B03C02FEF3FEF0AC09091840080918B
:103B60008500282F3327322F2227290F311D88E186
:103B70002B36380724F080916600815006C0285EFD
:103B8000374134F4809166008F5F8093660001C0F6
:103B9000C1E050938100CC2369F2CF910895CFEF1B
:103BA000D4E0DEBFCDBFC0E0D0E001E00E946E1DDA
:103BB00090E890BF87E080937F008FEF85B98EB942
:103BC0009093610092E0909361001092C5008CE0A8
:103BD0008093C4009093C00088E18093C10086E088
:103BE0008093C20005BF95BF789480E580936C00F8
:103BF00080E88CBB8DBB0023A9F11E9906C081E033
:103C000085BF15BEFE010995F6CF1C9B08C082E05A
:103C10008093C00087E083BF889513BEECCF0E94DD
:103C20004B1C8B31D9F40E944B1C8335E1F781E4A6
:103C30000E94671C86E50E94671C82E50E94671C43
:103C400082E40E94671C8FE40E94671C8FE40E943C
:103C5000671C84E50E94671CF89404C08FE30E94EF
:103C6000671CC9CF0E944B1C682F813611F489E56F
:103C7000C2C08134A9F40E944B1C99279093810102
:103C800080938001182F00270E944B1C9927082B36
:103C9000192B000F111F10938101009380015CC04C
:103CA000823641F489E50E94671C80E00E94671C0F
:103CB00080E8A1C0823489F40E944B1C9927182FF8
:103CC00000270E944B1C9927082B192B0E944B1C84
:103CD000682FC8010E94911C8EC0873689F40E940B
:103CE0004B1C9927182F00270E944B1C9927082B43
:103CF000192B0E944B1C682FC8010E94281DB2CFAF
:103D0000853661F5809182018537F9F41092810141
:103D10001092800163E080918001909181010E9466
:103D2000FE1E61E180918001909181010E94FE1E42
:103D3000809180019091810180589F4F90938101E3
:103D4000809380018050984328F361E18091800145
:103D5000909181010E94FE1E8DE04DC0853421F4BA
:103D600088E180936000F8CF8035B1F38C34A1F303
:103D7000803711F483E53FC0843729F485E70E943A
:103D8000671C80E038C08857823018F40E944B1CB2
:103D9000E3CF643529F40E944B1C80938201DCCF71
:103DA0006335A1F481E40E94671C86E50E94671CCC
:103DB00082E50E94671C82E40E94671C8FE40E94D7
:103DC000671C8FE40E94671C84E515C0663529F4E2
:103DD00080E30E94671C82E30EC0633741F483E0F6
:103DE0000E94671C84E90E94671C8EE104C06B314D
:103DF00009F438CF8FE30E94671C34CF07B600FC6C
:103E0000FDCFF999FECFFC0160935700E895FFFFC5
:103E1000000007B600FCFDCF08959C0107B600FC2A
:103E2000FDCFF999FECF81E00901FB018093570096
:103E3000E895FFFF0000112407B600FCFDCF0895B0
:103E400007B600FCFDCFFC0160FD60935700C895EC
:103E5000802DE395C895902D0895982F07B600FC06
:103E6000FDCFF999FECF89E0092E80935700E895A0
:0C3E7000FFFF000007B600FCFDCF089526
:0400000300003800C1
:00000001FF
